:020000040800F2
:1000000000500020852500083D24000843240008F6
:10001000492400084F24000855240008000000006F
:100020000000000000000000000000005B24000849
:100030006724000800000000732400087F240008E3
:10004000CD250008CD250008CD250008CD250008C8
:10005000CD250008CD250008CD250008CD250008B8
:10006000CD250008CD250008CD250008CD250008A8
:10007000CD250008CD250008CD250008CD25000898
:10008000CD250008CD2500088D240008CD250008C9
:10009000CD250008CD250008CD250008CD25000878
:1000A000CD250008CD250008CD250008CD25000868
:1000B000CD250008CD250008CD250008CD25000858
:1000C000CD250008CD250008CD250008CD25000848
:1000D000E9240008CD250008CD250008CD2500081D
:1000E000FD240008CD250008CD25000800000000F3
:1000F0000000000000000000000000000000000000
:0C01000000000000000000005FF808F1A3
:10010C0010B5054C237833B9044B13B10448AFF345
:10011C0000800123237010BDA0000020000000000F
:10012C00CC73000808B5034B1BB103490348AFF36C
:10013C00008008BD00000000A4000020CC73000863
:10014C00034613F8012B002AFBD1181A013870470B
:10015C0070B54FF0FF0C4CF4E06C1CEA11541DBF51
:10016C001CEA135594EA0C0F95EA0C0F00F0DEF81C
:10017C002C4481EA030621EA4C5123EA4C5350EA01
:10018C00013518BF52EA033541F4801143F4801352
:10019C0038D0A0FB02CE4FF00005E1FB02E506F0E3
:1001AC000042E0FB03E54FF00006E1FB03569CF038
:1001BC00000F18BF4EF0010EA4F1FF04B6F5007F3E
:1001CC0064F5407404D25FEA4E0E6D4146EB0606B0
:1001DC0042EAC62141EA55514FEAC52040EA5E5039
:1001EC004FEACE2EB4F1FD0C88BFBCF5E06F1ED8E3
:1001FC00BEF1004F08BF5FEA500E50F1000041EB1A
:10020C00045170BD06F0004646EA010140EA0200C6
:10021C0081EA0301B4EB5C04C2BFD4EB0C0541EAE8
:10022C00045170BD41F480114FF0000E013C00F3FD
:10023C00AB8014F1360FDEBF002001F0004170BD21
:10024C00C4F10004203C35DA0C341BDC04F114043A
:10025C00C4F1200500FA05F320FA04F001FA05F2C6
:10026C0040EA020001F0004221F0004110EBD37093
:10027C0021FA04F642EB06015EEA430E08BF20EABF
:10028C00D37070BDC4F10C04C4F1200500FA04F362
:10029C0020FA05F001FA04F240EA020001F00041F4
:1002AC0010EBD37041F100015EEA430E08BF20EA67
:1002BC00D37070BDC4F1200500FA05F24EEA020EAF
:1002CC0020FA04F301FA05F243EA020321FA04F0DE
:1002DC0001F0004121FA04F220EA020000EBD37095
:1002EC005EEA430E08BF20EAD37070BD94F0000F95
:1002FC000FD101F00046400041EB010111F4801FC9
:10030C0008BF013CF7D041EA060195F0000F18BF79
:10031C00704703F00046520043EB030313F4801FB5
:10032C0008BF013DF7D043EA0603704794EA0C0F6F
:10033C000CEA135518BF95EA0C0F0CD050EA410685
:10034C0018BF52EA4306D1D181EA030101F0004102
:10035C004FF0000070BD50EA410606BF104619462A
:10036C0052EA430619D094EA0C0F02D150EA013636
:10037C0013D195EA0C0F05D152EA03361CBF104677
:10038C0019460AD181EA030101F0004141F0FE4116
:10039C0041F470014FF0000070BD41F0FE4141F49A
:1003AC00780170BD81F0004102E000BF83F0004392
:1003BC0030B54FEA41044FEA430594EA050F08BFF4
:1003CC0090EA020F1FBF54EA000C55EA020C7FEAB8
:1003DC00645C7FEA655C00F0E2804FEA5454D4EB35
:1003EC005555B8BF6D420CDD2C4480EA020281EAFF
:1003FC00030382EA000083EA010180EA020281EA37
:10040C000303362D88BF30BD11F0004F4FEA013188
:10041C004FF4801C4CEA113102D0404261EB410197
:10042C0013F0004F4FEA03334CEA133302D052421D
:10043C0063EB430394EA050F00F0A780A4F10104D9
:10044C00D5F1200E0DDB02FA0EFC22FA05F2801813
:10045C0041F1000103FA0EF2801843FA05F35941F9
:10046C000EE0A5F120050EF1200E012A03FA0EFC78
:10047C0028BF4CF0020C43FA05F3C01851EBE371A2
:10048C0001F0004507D54FF0000EDCF1000C7EEBBF
:10049C0000006EEB0101B1F5801F1BD3B1F5001FFD
:1004AC000CD349085FEA30004FEA3C0C04F101041C
:1004BC004FEA445212F5800F80F09A80BCF1004F45
:1004CC0008BF5FEA500C50F1000041EB045141EAC7
:1004DC00050130BD5FEA4C0C404141EB0101013C90
:1004EC0028BFB1F5801FE9D291F0000F04BF01467F
:1004FC000020B1FA81F308BF2033A3F10B03B3F151
:10050C0020020CDA0C3208DD02F1140CC2F10C02E0
:10051C0001FA0CF021FA02F10CE002F11402D8BF3E
:10052C00C2F1200C01FA02F120FA0CFCDCBF41EA0A
:10053C000C019040E41AA2BF01EB0451294330BDD9
:10054C006FEA04041F3C1CDA0C340EDC04F11404B6
:10055C00C4F1200220FA04F001FA02F340EA03008D
:10056C0021FA04F345EA030130BDC4F10C04C4F1D3
:10057C00200220FA02F001FA04F340EA03002946B3
:10058C0030BD21FA04F0294630BD94F0000F83F4FD
:10059C00801306BF81F480110134013D4EE77FEAE0
:1005AC00645C18BF7FEA655C29D094EA050F08BF2C
:1005BC0090EA020F05D054EA000C04BF194610460D
:1005CC0030BD91EA030F1EBF0021002030BD5FEA51
:1005DC00545C05D14000494128BF41F0004130BD79
:1005EC0014F580043CBF01F5801130BD01F00045CD
:1005FC0045F0FE4141F470014FF0000030BD7FEA40
:10060C00645C1ABF194610467FEA655C1CBF0B463A
:10061C00024650EA013406BF52EA033591EA030F51
:10062C0041F4002130BD00BF90F0000F04BF002149
:10063C00704730B54FF4806404F132044FF000057C
:10064C004FF0000150E700BF90F0000F04BF0021F5
:10065C00704730B54FF4806404F1320410F000455B
:10066C0048BF40424FF000013EE700BF42004FEA56
:10067C00E2014FEA31014FEA02701FBF12F07F43D3
:10068C0093F07F4F81F06051704732F07F4208BF8A
:10069C00704793F07F4F04BF41F40021704730B591
:1006AC004FF4607401F0004521F000411CE700BFDD
:1006BC0050EA010208BF704730B54FF000050AE060
:1006CC0050EA010208BF704730B511F0004502D561
:1006DC00404261EB41014FF4806404F132045FEA63
:1006EC00915C3FF4D8AE4FF003025FEADC0C18BF0C
:1006FC0003325FEADC0C18BF033202EBDC02C2F1FE
:10070C00200300FA03FC20FA02F001FA03FE40EA8F
:10071C000E0021FA02F11444BDE600BF4A0011D2CA
:10072C0012F5001211D20DD56FF47873B3EB62523F
:10073C000ED44FEAC12343F0004343EA505323FA4B
:10074C0002F070474FF00000704750EA013002D1C0
:10075C004FF0FF3070474FF00000704780F00040C2
:10076C0002E000BF81F0004142001FBF5FEA41037D
:10077C0092EA030F7FEA226C7FEA236C6AD04FEA7D
:10078C001262D2EB1363C1BFD218414048404140C2
:10079C00B8BF5B42192B88BF704710F0004F40F474
:1007AC00000020F07F4018BF404211F0004F41F490
:1007BC00000121F07F4118BF494292EA030F3FD05C
:1007CC00A2F1010241FA03FC10EB0C00C3F120036F
:1007DC0001FA03F100F0004302D5494260EB4000FE
:1007EC00B0F5000F13D3B0F1807F06D340084FEA69
:1007FC00310102F10102FE2A51D2B1F1004F40EB5E
:10080C00C25008BF20F0010040EA030070474900C5
:10081C0040EB0000013A28BFB0F5000FEDD2B0FA62
:10082C0080FCACF1080CB2EB0C0200FA0CF0AABF85
:10083C0000EBC25052421843BCBFD0401843704723
:10084C0092F0000F81F4000106BF80F40000013229
:10085C00013BB5E74FEA41037FEA226C18BF7FEA00
:10086C00236C21D092EA030F04D092F0000F08BF42
:10087C000846704790EA010F1CBF0020704712F029
:10088C007F4F04D1400028BF40F00040704712F168
:10089C0000723CBF00F50000704700F0004343F0CD
:1008AC00FE4040F4000070477FEA226216BF084603
:1008BC007FEA23630146420206BF5FEA412390EAC6
:1008CC00010F40F4800070474FF0000304E000BFBC
:1008DC0010F0004348BF40425FEA000C08BF70476D
:1008EC0043F0964301464FF000001CE050EA010231
:1008FC0008BF70474FF000030AE000BF50EA010246
:10090C0008BF704711F0004302D5404261EB410132
:10091C005FEA010C02BF84460146002043F0B64357
:10092C0008BFA3F18053A3F50003BCFA8CF2083A7C
:10093C00A3EBC25310DB01FA02FC634400FA02FC85
:10094C00C2F12002BCF1004F20FA02F243EB02008C
:10095C0008BF20F00100704702F1200201FA02FCEE
:10096C00C2F1200250EA4C0021FA02F243EB0200E1
:10097C0008BF20EADC7070474FF0FF0C1CEAD05225
:10098C001EBF1CEAD15392EA0C0F93EA0C0F6FD0E6
:10099C001A4480EA010C400218BF5FEA41211ED0C4
:1009AC004FF0006343EA501043EA5111A0FB0131B0
:1009BC000CF00040B1F5000F3EBF490041EAD37185
:1009CC005B0040EA010062F17F02FD2A1DD8B3F101
:1009DC00004F40EBC25008BF20F00100704790F070
:1009EC00000F0CF0004C08BF49024CEA502040EAC2
:1009FC0051207F3AC2BFD2F1FF0340EAC250704788
:100A0C0040F400004FF00003013A5DDC12F1190FC5
:100A1C00DCBF00F000407047C2F10002410021FA37
:100A2C0002F1C2F1200200FA02FC5FEA310040F14F
:100A3C00000053EA4C0308BF20EADC70704792F0C8
:100A4C00000F00F0004C02BF400010F4000F013A00
:100A5C00F9D040EA0C0093F0000F01F0004C02BFFB
:100A6C00490011F4000F013BF9D041EA0C018FE76A
:100A7C000CEAD15392EA0C0F18BF93EA0C0F0AD070
:100A8C0030F0004C18BF31F0004CD8D180EA010096
:100A9C0000F00040704790F0000F17BF90F0004F2F
:100AAC00084691F0000F91F0004F14D092EA0C0F11
:100ABC0001D142020FD193EA0C0F03D14B0218BFA4
:100ACC00084608D180EA010000F0004040F0FE40EA
:100ADC0040F40000704740F0FE4040F44000704786
:100AEC004FF0FF0C1CEAD0521EBF1CEAD15392EA05
:100AFC000C0F93EA0C0F69D0A2EB030280EA010CF5
:100B0C0049024FEA402037D04FF0805343EA11118D
:100B1C0043EA10130CF000408B4238BF5B0042F1EB
:100B2C007D024FF4000C8B4224BF5B1A40EA0C0090
:100B3C00B3EB510F24BFA3EB510340EA5C00B3EBC2
:100B4C00910F24BFA3EB910340EA9C00B3EBD10FB0
:100B5C0024BFA3EBD10340EADC001B0118BF5FEA02
:100B6C001C1CE0D1FD2A3FF650AF8B4240EBC2502B
:100B7C0008BF20F0010070470CF0004C4CEA5020EC
:100B8C007F32C2BFD2F1FF0340EAC250704740F43B
:100B9C0000004FF00003013A37E792F0000F00F02D
:100BAC00004C02BF400010F4000F013AF9D040EAAB
:100BBC000C0093F0000F01F0004C02BF490011F43F
:100BCC00000F013BF9D041EA0C0195E70CEAD15337
:100BDC0092EA0C0F08D142027FF47DAF93EA0C0F1E
:100BEC007FF470AF084676E793EA0C0F04D14B0202
:100BFC003FF44CAF08466EE730F0004C18BF31F0B4
:100C0C00004CCAD130F000427FF45CAF31F00043AD
:100C1C007FF43CAF5FE700BF4FF0FF3C06E000BF46
:100C2C004FF0010C02E000BF4FF0010C4DF804CD69
:100C3C004FEA40024FEA41037FEA226C18BF7FEA79
:100C4C00236C11D001B052EA530C18BF90EA010F7B
:100C5C0058BFB2EB030088BFC81738BF6FEAE1700A
:100C6C0018BF40F0010070477FEA226C02D15FEAA6
:100C7C00402C05D17FEA236CE4D15FEA412CE1D012
:100C8C005DF8040B704700BF844608466146FFE7D9
:100C9C000FB5FFF7C9FF002848BF10F1000F0FBDBB
:100CAC004DF808EDFFF7F4FF0CBF012000205DF8B4
:100CBC0008FB00BF4DF808EDFFF7EAFF34BF012039
:100CCC0000205DF808FB00BF4DF808EDFFF7E0FFD2
:100CDC0094BF012000205DF808FB00BF4DF808ED23
:100CEC00FFF7D2FF94BF012000205DF808FB00BF86
:100CFC004DF808EDFFF7C8FF34BF012000205DF868
:100D0C0008FB00BF80B58AB000AF0346FB804FF4F0
:100D1C008051314802F0F6FC0346002B3ED12F4B9C
:100D2C001B681A682D4B1B6822F480721A6007F13D
:100D3C00180300221A605A609A60DA604FF48043FC
:100D4C00BB610223FB6100233B6203237B6207F13F
:100D5C0018031946204802F051FB214B1B78002B3D
:100D6C000BD0204B1B78002B07D01F4B1B681F4A46
:100D7C0013601B4B00221A7006E01A4B1B78002BD9
:100D8C0002D01A4B1A4A1A60184B1968194B1A6878
:100D9C004FF48473114803F019FF19E00F4B1B68D3
:100DAC001A680E4B1B6842F480721A6007F1080334
:100DBC0000221A605A609A60DA604FF48043BB607C
:100DCC000023FB6007F108031946034802F016FBE9
:100DDC0000BF2837BD4680BD000C01407C060020BA
:100DEC00BD000020BE000020E8040020E00400202C
:100DFC00EC040020E404002080B485B000AF7860DF
:100E0C000B46FB700023FB6007E0FB687A68134419
:100E1C00FA781A70FB680133FB60FB68B3F5847FCA
:100E2C00F3DB00BF00BF1437BD4680BC7047000029
:100E3C0080B500AF0B4B00221A700A4B1B7818467A
:100E4C0000F04EF8AA210848FFF7D6FF00F010F882
:100E5C00064B1B681A68054B1B6842F480721A60BB
:100E6C0000BF80BDBE000020D00200207C06002008
:100E7C0080B582B000AF194BFA221A70174BAF2213
:100E8C005A70164B03229A70144BFF2283F80221DE
:100E9C00124B0D2283F803214FF482710F4801F09D
:100EAC0009F878607B681B0EDAB20C4B83F80421CE
:100EBC007B681B0CDAB2094B83F805217B681B0A93
:100ECC00DAB2064B83F806217B68DAB2034B83F85F
:100EDC00072100BF0837BD4680BD00BFEC040020D1
:100EEC0080B483B000AF0346FB71FB79002B03D0B9
:100EFC00074B084A1A6005E0074B084A1A60044B76
:100F0C00074A1A6000BF0C37BD4680BC704700BF53
:100F1C00E4040020D8030020E0040020D0020020CC
:100F2C00C000002080B582B000AF78607B681B6881
:100F3C00114A93421BD1114B1B78002B03D00F4B42
:100F4C0000221A700EE00D4B01221A700C4A0D4B48
:100F5C00104619464FF484731A4605F0AFFD0A4B40
:100F6C0001221A70054B1B781846FFF7B9FF00BF1A
:100F7C000837BD4680BD00BF00380040BE000020D1
:100F8C00C8010020C0000020BC00002090B587B034
:100F9C0000AF01F017FB00F045F900F03BFB00F04F
:100FAC0011FA00F00DFB00F099F900F0D5F900F002
:100FBC00B9FA00F039FA01221821884802F0B9FB7D
:100FCC0000F0A4FF864B1B6847F248125A62844813
:100FDC0004F01AFA834801F059FD6421814801F0AC
:100FEC004FFC814B1B78002B04D07F4B00221A70D6
:100FFC0000F07AFD7D4B1B78302B0CD101220421A3
:10100C00764802F096FB05F041FA794B00221A70F3
:10101C00784B00221A80754B1B78312B07D101229B
:10102C0004216E4802F085FB734B01221A706F4B42
:10103C001B78322B07D101220421684802F079FB7E
:10104C006D4B00221A70694B1B78332B14D1012283
:10105C000421624802F06DFB644B5B781946674BC8
:10106C001B880022664805F083FC644B1A886423B5
:10107C006349644804F0EBFF5C4B00221A700022B9
:10108C000421564802F055FB5B4B1B78002BA8D073
:10109C005D4B1B78DBB2012BA3D15B4B00221A708A
:1010AC005A4B1B887B827B8A1846FFF70DFC044643
:1010BC007B8AC3F57F630F331846FFF709FC0346A1
:1010CC0019462046FFF70CFD0346FB6009237B61A4
:1010DC0047E04F4A7B6952F823301946F868FFF70E
:1010EC00F3FD0346002B39D07B690133484A52F893
:1010FC00232047497B6951F8233019461046FFF7E6
:10110C0031FB034619464348FFF7EAFC0346BB6034
:10111C007B695A1E13469B0013441846FFF7D8FBF5
:10112C0004463B4A7B6952F82330B9681846FFF7EE
:10113C0023FC034619462046FFF714FB03467B604D
:10114C00F968B868FFF718FC034679681846FFF78A
:10115C000BFB03461A46304B1A6005E07B69013BDA
:10116C007B617B69002BB4DA2B4B1B681846FFF7AD
:10117C007DFA4FF00002294BFEF7EAFF02460B46C0
:10118C0010461946FFF7CAFA03469AB2244B1A8046
:10119C00184B1B889BB21946154B1B785B001A46E3
:1011AC0002231F4805F096F9114B1B780133DAB274
:1011BC000F4B1A700E4B1B787F2B09D10D4B1B88D4
:1011CC009BB201339AB20B4B1A80094B00221A7056
:1011DC000421024802F0C5FA03E700BF00080140F1
:1011EC001C070020F4050020BC000020B0080020E3
:1011FC00AD080020AA080020A8080020DC09002067
:10120C00A807002064070020AC080020D2090020A9
:10121C00000000200000A040BC0800200000594045
:10122C00C008002080B594B000AF07F12803282235
:10123C000021184605F050FC07F1140300221A6037
:10124C005A609A60DA601A613B1D00221A605A607B
:10125C009A60DA600123BB624FF48033FB62002397
:10126C003B630123BB6302237B644FF48033BB6479
:10127C004FF4E013FB6407F12803184602F0A2FABE
:10128C000346002B01D000F027FA0F237B610223C9
:10129C00BB610023FB614FF480633B6200237B62E4
:1012AC0007F114030221184602F00EFD0346002B31
:1012BC0001D000F011FA02237B604FF40043FB6075
:1012CC003B1D184602F098FE0346002B01D000F09F
:1012DC0003FA00BF5037BD4680BD000080B584B016
:1012EC0000AF3B1D00221A605A609A60184B194AD5
:1012FC001A60174B00229A60154B00221A73144B7C
:10130C0000221A75124B4FF40022DA61104B0022A6
:10131C005A600F4B01221A610D4801F0D9F90346AE
:10132C00002B01D000F0D8F901237B600123BB60B6
:10133C000023FB603B1D1946054801F03FFD0346A9
:10134C00002B01D000F0C8F900BF1037BD4680BD9E
:10135C00F40500200024014080B500AF174B184A5B
:10136C001A60164B4FF482725A60144B00229A602A
:10137C00124B0022DA60114B00221A610F4B002233
:10138C005A610E4B4FF400729A610C4B2022DA61B9
:10139C000A4B00221A62094B00225A62074B0022A8
:1013AC009A62064B0A22DA62044802F09BFF03465B
:1013BC00002B01D000F090F900BF80BD2406002066
:1013CC000030014080B500AF154B164A1A60144B23
:1013DC0000225A60124B00229A60114B0022DA60F4
:1013EC000F4B00221A610E4B00225A610C4B4FF42A
:1013FC0000729A610A4B00221A62094B00225A624F
:10140C00074B00229A62064B0A22DA62044802F069
:10141C0069FF0346002B01D000F05EF900BF80BDD0
:10142C007C0600200038004080B58EB000AF07F17C
:10143C00280300221A605A609A60DA6007F12003D0
:10144C0000221A605A603B1D00221A605A609A6092
:10145C00DA601A615A619A61314B4FF080421A601E
:10146C002F4B48225A602E4B00229A602C4B40F294
:10147C00F512DA602A4B00221A61294B00229A617C
:10148C00274803F071FF0346002B01D000F024F92C
:10149C004FF48053BB6207F128031946204804F02F
:1014AC00C3F90346002B01D000F016F91C4803F0D9
:1014BC00F5FF0346002B01D000F00EF90821184867
:1014CC0004F044F80346002B01D000F005F900238A
:1014DC003B6200237B6207F120031946104804F09D
:1014EC000BFD0346002B01D000F0F6F860237B6067
:1014FC000123BB600223FB6000237B613B1D0022A8
:10150C001946074804F0D2F80346002B01D000F02E
:10151C00E3F8034800F010FF00BF3837BD4680BD2C
:10152C00D406002080B586B000AF07F10803002276
:10153C001A605A609A60DA603B4600221A605A6060
:10154C001D4B1E4A1A601C4B4FF6FF725A601A4B09
:10155C0000229A60184B47F23052DA60164B002288
:10156C001A61154B00229A61134803F0FDFE0346E5
:10157C00002B01D000F0B0F84FF48053BB6007F1A2
:10158C00080319460C4804F04FF90346002B01D010
:10159C0000F0A2F830233B6000237B603B461946E9
:1015AC00054804F0A9FC0346002B01D000F094F888
:1015BC0000BF1837BD4680BD1C070020000400404A
:1015CC0080B500AF114B124A1A60104B4FF4E13248
:1015DC005A600E4B00229A600C4B0022DA600B4BC7
:1015EC0000221A61094B0C225A61084B00229A61A5
:1015FC00064B0022DA61054804F0DCFC0346002BA4
:10160C0001D000F069F800BF80BD00BF6407002066
:10161C000038014080B588B000AF07F110030022FC
:10162C001A605A609A60DA60274B9B69264A43F02D
:10163C0020039361244B9B6903F02003FB60FB6840
:10164C00214B9B69204A43F0040393611E4B9B6919
:10165C0003F00403BB60BB681B4B9B691A4A43F045
:10166C0008039361184B9B6903F008037B607B684C
:10167C0000221C21154802F05CF81C233B6101235D
:10168C007B610023BB610223FB6107F11003194648
:10169C000E4801F0B3FE4FF480533B610C4B7B6161
:1016AC000023BB6107F1100319460A4801F0A6FE9E
:1016BC0000220121282001F0F4FD282001F00DFE6C
:1016CC0000BF2037BD4680BD00100240000801401D
:1016DC0000003110000C014080B400AF72B600BFA6
:1016EC00FEE7000080B483B000AF234B1B78BB71C6
:1016FC00224B1B889BB27B71214B1A687B799A42D7
:10170C000AD11F4B93F904301A46BB799A4203D184
:10171C001B4B00225A712BE0194B1A687B799A42A9
:10172C0006D1BB79002B03D1154B00225A711FE057
:10173C00134B1A687B799A4201D07F23BB71104BF3
:10174C0093F90430B3F1FF3F02D10023FB7106E0A3
:10175C000B4B93F904300133DBB25B00FB71BB79AB
:10176C005B00DAB2FB79D31ADAB2054B5A7100BFBF
:10177C000C37BD4680BC7047AD080020AA0800207D
:10178C002800002080B483B000AF0346FB71044AEC
:10179C00FB79137000BF0C37BD4680BC704700BF8F
:1017AC00CC09002080B582B000AF4FF484720021C8
:1017BC00204805F091F91F4BFA221A701D4BAA22F2
:1017CC005A7000F03FF8FFF78DFF1B4B5A79194BFD
:1017DC009A70184BFF2283F80221164B0B2283F8C8
:1017EC0003214FF48271134800F064FB78607B682E
:1017FC001B0EDAB20F4B83F804217B681B0CDAB298
:10180C000C4B83F805217B681B0ADAB2094B83F871
:10181C0006217B68DAB2074B83F80721074B054A90
:10182C001A60074B01221A7000F0C0FB00BF08378A
:10183C00BD4680BDC408002028000020E80400201C
:10184C00BD00002080B582B000AF3B4B5B79002B14
:10185C006ED001220421394801F06BFF364B196818
:10186C00374B1B880022374805F082F8324B93F92E
:10187C000430B3F1FF3F02D10023FB7106E02E4B85
:10188C0093F904300133DBB25B00FB712A4B5A79BC
:10189C00FB791344DBB2013B7B700323BB80FB79E8
:1018AC007B800BE07A88BB882649895C264AD15418
:1018BC007B8801337B80BB880133BB807B789BB2F8
:1018CC007A889A42EED91C4B93F90430B3F1FF3F5E
:1018DC0009D1194B5B795B08DBB2013BDBB25AB225
:1018EC00154B1A710CE0144B93F90430DAB2124B0D
:1018FC005B795B08DBB21344DBB25AB20E4B1A7144
:10190C000D4B93F904307E2B13D10B4B1B684FF608
:10191C00FF72934203D1084B00221A6004E0064B7D
:10192C001B680133044A1360034BFF221A7100E059
:10193C0000BF0837BD4680BD2800002000080140CC
:10194C00DC090020A8070020C408002090B58FB047
:10195C0002AF03460A46FB801346BB804FF48472E9
:10196C0000212F4805F0B8F82D4BFA221A702C4B99
:10197C00AF225A70FB88DAB2294B9A70BB88A22B23
:10198C0003D1284B5A79264BDA70254BFF2283F86A
:10199C000221234B0D2283F803214FF4827120483E
:1019AC0000F088FAF862FB6A1B0EDAB21C4B83F863
:1019BC000421FB6A1B0CDAB2194B83F80521FB6A74
:1019CC001B0ADAB2164B83F80621FB6ADAB2144B07
:1019DC0083F80721144B124A1A60144B01221A7017
:1019EC000F4B1B7819460E4B5B781C460C4B9B78A7
:1019FC001A460B4BDB7807F10C000193009223463F
:101A0C000A460B4905F070F807F10C014FF47A7394
:101A1C001722084804F01BFB00BF3437BD4690BDAD
:101A2C00C408002028000020E8040020BD0000208D
:101A3C00E47300086407002080B500AF054800F08F
:101A4C000FF8054B034A1A60044B01221A7000BFB1
:101A5C0080BD00BFC4080020E8040020BD000020A9
:101A6C0080B584B000AF78607B6801331B78AA2BFB
:101A7C0007D1FFF737FE7B6802331A4A52791A7086
:101A8C000BE07B6802331B78A22B06D1FFF72AFEF2
:101A9C007B680333134A52791A704FF48271786859
:101AAC0000F008FAF860FB681A0E7B6803F5827385
:101ABC00D2B21A70FB681A0C7B6803F20513D2B20F
:101ACC001A70FB681A0A7B6803F58373D2B21A701A
:101ADC007B6803F20713FA68D2B21A7000BF103792
:101AEC00BD4680BD2800002080B58AB000AF00F054
:101AFC0035FA4FF48271B94800F0ACF9034683F023
:101B0C000103DBB2002B0DD00021FF20FFF71EFFDD
:101B1C00B34B7B624FF47A730722796AB14804F0B5
:101B2C0096FA8CE1AD4B9B781A463B1DAE49184694
:101B3C0004F0DAFF391D4FF47A730D22A94804F032
:101B4C0086FAAA4B1B78052B00F2798101A252F878
:101B5C0023F000BF791B0008D71B0008531C00089A
:101B6C00E11C0008611D0008011E00089B4B9B78BE
:101B7C00FF2B26D0FF2B00F35981A22B02D0A32BD5
:101B8C001CD053E100F064FA0346002B11D0FFF790
:101B9C00A9FD974B5B79002B03D00320FFF7F2FDD7
:101BAC0002E00120FFF7EEFDA2212C20FFF7CEFE74
:101BBC000AE0A2210820FFF7C9FE05E000F050FA68
:101BCC0002E0FFF739FF00BF30E1844B9B78FF2B1D
:101BDC0035D0FF2B00F32C81A42B26D0A42B00F3A3
:101BEC002781A22B02D0A32B1CD021E100F030FACC
:101BFC000346002B11D0FFF775FD7D4B5B79002B55
:101C0C0003D00320FFF7BEFD02E00120FFF7BAFD71
:101C1C00A2212C20FFF79AFE14E0A2210820FFF746
:101C2C0095FE0FE000F01CFA0CE0A4210620FFF753
:101C3C008DFE00F035FA0220FFF7A4FD02E0FFF75D
:101C4C00FBFE00BFF4E0654B9B78A72B18DCA12BA7
:101C5C00C0F2F080A13B062B00F2EC8001A252F8FE
:101C6C0023F000BF931C00089F1C0008BF1C000839
:101C7C00411E0008411E0008411E0008C51C00083A
:101C8C00FF2B23D0D6E00420FFF77CFDFFF78AFD65
:101C9C001FE0FFF727FD564B5B79002B04D0A221E8
:101CAC000120FFF753FE14E0A2210220FFF74EFEA5
:101CBC000FE000F0D5F90CE000F0FEF9A7210720A9
:101CCC00FFF744FE0120FFF75DFD02E0FFF7B4FED5
:101CDC0000BFAFE0414B9B78A42B11DCA12BC0F2D1
:101CEC00AB80A13B032B00F2A78001A252F823F09A
:101CFC00131D0008191D00083F1D0008451D000894
:101D0C00FF2B23D098E0FFF74DFD22E0FFF7EAFC14
:101D1C00374B5B79002B04D0A2210120FFF716FE74
:101D2C0017E0A2210220FFF711FE0120FFF72AFD88
:101D3C000FE000F095F90CE0A4210620FFF706FE59
:101D4C0000F0AEF90420FFF71DFD02E0FFF774FE72
:101D5C0000BF71E0214B9B78A72B15DCA12B6DDB11
:101D6C00A13B062B6AD801A252F823F09B1D000858
:101D7C00A11D0008C71D0008491E0008491E0008C7
:101D8C00491E0008CD1D0008FF2B23D056E0FFF79D
:101D9C0009FD22E0FFF7A6FC154B5B79002B04D064
:101DAC00A2210120FFF7D2FD17E0A2210220FFF7AC
:101DBC00CDFD0220FFF7E6FC0FE000F051F90CE03E
:101DCC0000F07AF9A7210720FFF7C0FD0320FFF7E9
:101DDC00D9FC02E0FFF730FE00BF2FE0C801002065
:101DEC0004740008640700200C740008CC0900205F
:101DFC0028000020134B9B78A22B20D1124B1B7870
:101E0C00002B0FD000220421104801F092FCA321DA
:101E1C000520FFF79BFD0020FFF7B4FC0A4B0022C6
:101E2C001A700CE00A4B00221A7008E000BF06E0A2
:101E3C0000BF04E000BF02E000BF00E000BF283795
:101E4C00BD4680BDC8010020CD090020000801401E
:101E5C00BD00002080B584B000AF78600B467B805D
:101E6C007B6803F207131B781A467B6803F58373B0
:101E7C001B781B021A437B6803F205131B781B04A7
:101E8C001A437B6803F582731B781B061343FB60B4
:101E9C004FF48271786800F00DF8B860FA68BB688E
:101EAC009A4201D0002300E0012318461037BD46AA
:101EBC0080BD000080B485B000AF78600B467B809D
:101ECC004FF0FF33FB600023BB6011E0BB687A6806
:101EDC0013441B781A46FB685340DBB20A4A52F88B
:101EEC002320FB681B0A5340FB60BB680133BB60BB
:101EFC007B88BA689A42E9DBFB68DB4318461437E7
:101F0C00BD4680BC704700BF9477000880B500AF19
:101F1C00012004F087FBFEF78BFF0021064803F03D
:101F2C006FFB012000F0B0FB00F008F80020FFF779
:101F3C0029FC00BF80BD00BFD406002080B400AFD8
:101F4C00054B1B681A68044B1B6842F001021A60AF
:101F5C0000BFBD4680BC7047D406002080B400AFE3
:101F6C00054B1B681A68044B1B6842F001021A608F
:101F7C0000BFBD4680BC7047D406002080B500AFC2
:101F8C000520FFF7FFFB074B00221A60054BFF22D1
:101F9C001A71044B00225A71034B00221A7000BFB5
:101FAC0080BD00BF28000020BD00002080B5ADF52D
:101FBC00507D00AF3B462149184604F095FDC7F80B
:101FCC003C030023C7F8383317E0D7F83C333A46C4
:101FDC00D0181B4AD7F8383313441B781A461949C2
:101FEC0004F082FD0246D7F83C331344C7F83C3367
:101FFC00D7F838330133C7F83833D7F83833B3F55B
:10200C00847FE2DBD7F83C333A4613440E4918463A
:10201C0004F06AFD0246D7F83C331344C7F83C334E
:10202C00D7F83C339AB239464FF47A73074804F028
:10203C000EF800BF07F55077BD4680BD1C74000834
:10204C00C40800202C7400083474000864070020B5
:10205C0080B400AF01231846BD4680BC7047000019
:10206C0080B500AF00F028F8FFF788FF084B00227E
:10207C001A70084B00221A8001220421064801F034
:10208C0058FB04F003FA054B01221A7000BF80BD07
:10209C00AD080020AA08002000080140CD0900204E
:1020AC0080B400AF034B31221A7000BFBD4680BC18
:1020BC00704700BFB008002080B400AF034B322241
:1020CC001A7000BFBD4680BC704700BFB00800202E
:1020DC0080B485B000AF154B9B69144A43F00103E3
:1020EC009361124B9B6903F00103BB60BB680F4B00
:1020FC00DB690E4A43F08053D3610C4BDB6903F070
:10210C0080537B607B680A4B5B68FB60FB6823F049
:10211C00E063FB60FB6843F00073FB60044AFB6800
:10212C00536000BF1437BD4680BC7047001002409E
:10213C000000014080B588B000AF786007F1100353
:10214C0000221A605A609A60DA607B681B68184A31
:10215C00934229D1174B9B69164A43F40073936140
:10216C00144B9B6903F40073FB60FB68114B9B6978
:10217C00104A43F0040393610E4B9B6903F0040374
:10218C00BB60BB6802233B6103237B6107F1100337
:10219C001946094801F032F900220121122001F000
:1021AC0080F8122001F099F800BF2037BD4680BDA1
:1021BC0000240140001002400008014080B58AB0A4
:1021CC0000AF786007F1180300221A605A609A6019
:1021DC00DA607B681B683B4A934230D13A4B9B696F
:1021EC00394A43F480539361374B9B6903F4805312
:1021FC007B617B69344B9B69334A43F004039361E5
:10220C00314B9B6903F004033B613B69A023BB6129
:10221C000223FB6103237B6207F1180319462B4849
:10222C0001F0ECF84023BB610023FB6100233B620F
:10223C0007F118031946254801F0E0F83EE07B68E9
:10224C001B68234A934239D11F4BDB691E4A43F466
:10225C008043D3611C4BDB6903F48043FB60FB6858
:10226C00194B9B69184A43F008039361164B9B6901
:10227C0003F00803BB60BB684FF42043BB61002331
:10228C00FB6100233B6207F118031946114801F06A
:10229C00B5F84FF48043BB610223FB6103237B62DF
:1022AC0007F1180319460B4801F0A8F80022012188
:1022BC00242000F0F6FF242001F00FF800BF28378F
:1022CC00BD4680BD003001400010024000080140B6
:1022DC0000380040000C014080B485B000AF78603D
:1022EC007B681B68B3F1804F0CD1114BDB69104A32
:1022FC0043F00103D3610E4BDB6903F00103FB6078
:10230C00FB6810E07B681B680A4A93420BD1084BB0
:10231C00DB69074A43F00203D361054BDB6903F029
:10232C000203BB60BB6800BF1437BD4680BC70475E
:10233C00001002400004004080B588B000AF786007
:10234C0007F1100300221A605A609A60DA607B6809
:10235C001B68B3F1804F17D10D4B9B690C4A43F0AE
:10236C00040393610A4B9B6903F00403FB60FB6855
:10237C0001233B6102237B610223FB6107F1100304
:10238C001946044801F03AF800BF2037BD4680BD1D
:10239C00001002400008014080B588B000AF7860A2
:1023AC0007F1100300221A605A609A60DA607B68A9
:1023BC001B681C4A934231D11B4B9B691A4A43F44C
:1023CC0080439361184B9B6903F48043FB60FB686B
:1023DC00154B9B69144A43F004039361124B9B69A0
:1023EC0003F00403BB60BB684FF400733B61022332
:1023FC007B610323FB6107F1100319460B4800F0C6
:10240C00FDFF4FF480633B6100237B610023BB61C4
:10241C0007F110031946054800F0F0FF00BF203704
:10242C00BD4680BD0038014000100240000801404C
:10243C0080B400AFFEE780B400AFFEE780B400AF1D
:10244C00FEE780B400AFFEE780B400AFFEE780B4D7
:10245C0000AF00BFBD4680BC704780B400AF00BF6A
:10246C00BD4680BC704780B400AF00BFBD4680BC89
:10247C00704780B500AF00F0EBF800BF80BD0000E6
:10248C0080B500AF0F4800F0B7FB03469AB20E4B75
:10249C001A800E4B1B78002B02D00D4B01221A70A8
:1024AC000C4B1B7883F00103DBB2002B04D0064BE2
:1024BC001B889AB2084B1A80024800F0A9FB00BF97
:1024CC0080BD00BFF4050020D2090020A808002020
:1024DC00AC080020D0090020CE09002080B500AF48
:1024EC00024802F007FC00BF80BD00BF7C06002044
:1024FC0080B500AF4FF4805001F04CF900BF80BDA7
:10250C0080B586B000AF7860144A154BD31A7B6146
:10251C007B693B61134B1B68002B02D1114B124A98
:10252C001A60104B1A687B6813443A699A4207D2B6
:10253C0004F09AFA03460C221A604FF0FF3309E0BC
:10254C00084B1B68FB60074B1A687B681344054AF1
:10255C001360FB6818461837BD4680BD005000203C
:10256C0000040000D4090020400A002080B400AF11
:10257C0000BFBD4680BC70470C480D490D4A002376
:10258C0002E0D458C4500433C4188C42F9D30A4A1C
:10259C000A4C002301E013600432A242FBD3FFF784
:1025AC00E5FF04F067FAFEF7F1FC7047000000202D
:1025BC00A0000020E87B0008A00000203C0A0020BE
:1025CC00FEE7000080B500AF084B1B68074A43F0DC
:1025DC0010031360032000F059FE002000F008F8EF
:1025EC00FFF776FD0023184680BD00BF0020024097
:1025FC0080B582B000AF7860124B1A68124B1B7812
:10260C0019464FF47A73B3FBF1F3B2FBF3F31846AC
:10261C0000F071FE0346002B01D001230EE07B6815
:10262C000F2B0AD8002279684FF0FF3000F039FEEA
:10263C00064A7B681360002300E001231846083724
:10264C00BD4680BD30000020380000203400002042
:10265C0080B400AF054B1B781A46054B1B6813441E
:10266C00034A136000BFBD4680BC70473800002091
:10267C00D809002080B400AF024B1B681846BD4639
:10268C0080BC7047D809002080B584B000AF78605A
:10269C00FFF7F0FFB8607B68FB60FB68B3F1FF3FAE
:1026AC0005D00A4B1B781A46FB681344FB6000BF2D
:1026BC00FFF7E0FF0246BB68D31AFA689A42F7D8D4
:1026CC0000BF00BF1037BD4680BD00BF38000020E2
:1026DC0080B586B000AF78600023FB7500233B61AA
:1026EC000023BB600023FB607B68002B01D101231E
:1026FC00BEE07B689B68002B7B689B6A002B09D132
:10270C007B680022DA627B68002283F824207868D8
:10271C00FFF710FD786800F0A3FC0346FB757B689F
:10272C009B6A03F01003002B40F09980FB7D002B7B
:10273C0040F095807B689B6A23F4885323F0020356
:10274C0043F002027B689A627B685A687B68DB699B
:10275C001A437B681B7B5B001343BA681343BB6053
:10276C007B689B68B3F5807F03D07B689B68012BEB
:10277C0002D14FF4807300E000233A6913433B61AC
:10278C007B681B7D012B19D17B681B7B002B09D12E
:10279C007B689B69013B5A033B69134343F4006319
:1027AC003B610BE07B689B6A43F020027B689A627A
:1027BC007B68DB6A43F001027B68DA627B681B682A
:1027CC005B6823F469417B681B683A690A435A6069
:1027DC007B681B689A68284B13407A681268B96842
:1027EC000B4393607B689B68B3F5807F03D07B6859
:1027FC009B68012B04D17B681B69013B1B05FB60AB
:10280C007B681B68DB6A23F470017B681B68FA68C1
:10281C000A43DA627B681B689A68184B1340BA68E3
:10282C009A420BD17B680022DA627B689B6A23F0A8
:10283C00030343F001027B689A6218E07B689B6A91
:10284C0023F0120343F010027B689A627B68DB6A08
:10285C0043F001027B68DA620123FB7507E07B68B9
:10286C009B6A43F010027B689A620123FB75FB7D27
:10287C0018461837BD4680BDFDF7E1FFFE0E1FFF61
:10288C0090B587B000AF7860396000237B6100237E
:10289C00FB6000233B61FFF7EDFE78617B681B68F2
:1028AC009B6803F48073002B0BD07B689B6A43F00E
:1028BC0020027B689A627B68002283F82420012323
:1028CC00D3E07B681B685B6803F48073002B31D109
:1028DC007B681B68DB6A03F47003002B2AD121E0B0
:1028EC003B68B3F1FF3F1DD03B68002B07D0FFF7CF
:1028FC00C1FE02467B69D31A3A689A4212D27B68AF
:10290C001B681B6803F00203002B0BD17B689B6ACE
:10291C0043F004027B689A627B68002283F82420CF
:10292C000323A2E07B681B681B6803F00203002BE7
:10293C00D6D070E04F4B1C68022001F013FC03460C
:10294C00B4FBF3F27B681B6819694B4B0B40002BF3
:10295C0018D17B681B68D968484B0B40002B11D1F0
:10296C007B681B681969464B0B40002B08D17B68B0
:10297C001B68D968434B0B40002B01D1142320E07A
:10298C0029231EE07B681B6819693D4B0B40002B0B
:10299C0006D17B681B68D9683A4B0B40002B0DD0D5
:1029AC007B681B681969384B0B40002B08D17B687E
:1029BC001B68D968344B0B40002B01D1542300E029
:1029CC00FC2302FB03F33B6121E03B68B3F1FF3FC7
:1029DC001AD03B68002B07D0FFF74CFE02467B69F0
:1029EC00D31A3A689A420FD2FB683A699A420BD9C9
:1029FC007B689B6A43F004027B689A627B680022C6
:102A0C0083F82420032330E0FB680133FB60FB6870
:102A1C003A699A42D9D87B681B686FF012021A6027
:102A2C007B689B6A43F400727B689A627B681B68C4
:102A3C009B6803F46023B3F5602F15D17B681B7B77
:102A4C00002B11D17B689B6A23F480727B689A629D
:102A5C007B689B6A03F48053002B05D17B689B6ACF
:102A6C0043F001027B689A62002318461C37BD466E
:102A7C0090BD00BF300000202449922424499200CC
:102A8C0092244912922449004992240080B584B0C2
:102A9C0000AF78600023FB737B6893F82430012B24
:102AAC0001D10223A0E07B68012283F824207868FE
:102ABC0000F07CFA0346FB73FB7B002B40F08F800D
:102ACC007B689B6A23F4706323F0010343F48072E8
:102ADC007B689A627B681B68454A934205D1454BDB
:102AEC005B6803F47023002B15D17B689B6A23F47D
:102AFC0080127B689A627B681B685B6803F4806356
:102B0C00002B26D07B689B6A23F4405343F48052FD
:102B1C007B689A621DE07B689B6A43F480127B6839
:102B2C009A627B681B68334A934204D07B681B68AB
:102B3C002F4A93420DD12F4B5B6803F48063002B1B
:102B4C0007D07B689B6A23F4405343F480527B6824
:102B5C009A627B689B6A03F48053002B06D07B68D7
:102B6C00DB6A23F006027B68DA6202E07B680022F3
:102B7C00DA627B68002283F824207B681B686FF084
:102B8C0002021A607B681B685A687B681B6842F0FB
:102B9C0020025A607B681B689B6803F46023B3F5C2
:102BAC00602F13D17B681B68114A934205D1114BDE
:102BBC005B6803F47023002B08D17B681B689A6850
:102BCC007B681B6842F4A0029A600CE07B681B686F
:102BDC009A687B681B6842F480129A6003E07B68F9
:102BEC00002283F82420FB7B18461037BD4680BD9D
:102BFC00002801400024014080B483B000AF78600D
:102C0C007B681B68DB6C18460C37BD4680BC704774
:102C1C0080B582B000AF78607B681B685B6803F09E
:102C2C002003202B40D17B681B681B6803F0020338
:102C3C00022B39D17B689B6A03F01003002B05D162
:102C4C007B689B6A43F400727B689A627B681B68A2
:102C5C009B6803F46023B3F5602F1DD17B681B7B4D
:102C6C00002B19D17B681B685A687B681B6822F0A3
:102C7C0020025A607B689B6A23F480727B689A629C
:102C8C007B689B6A03F48053002B05D17B689B6A9D
:102C9C0043F001027B689A62786800F07CF87B68EC
:102CAC001B686FF012021A607B681B685B6803F08C
:102CBC008003802B4FD17B681B681B6803F00403D7
:102CCC00042B48D17B689B6A03F01003002B05D1C1
:102CDC007B689B6A43F400527B689A627B681B6832
:102CEC009B6803F4E043B3F5E04F12D07B681B689C
:102CFC005B6803F48063002B25D17B681B689B68A1
:102D0C0003F46023B3F5602F1DD17B681B7B002B74
:102D1C0019D17B681B685A687B681B6822F080029B
:102D2C005A607B689B6A23F480527B689A627B684A
:102D3C009B6A03F48073002B05D17B689B6A43F07C
:102D4C0001027B689A62786800F0CBF97B681B689B
:102D5C006FF00C021A607B681B685B6803F0400321
:102D6C00402B14D17B681B681B6803F00103012BFB
:102D7C000DD17B689B6A43F480327B689A627868D9
:102D8C0000F012F87B681B686FF001021A6000BF3C
:102D9C000837BD4680BD80B483B000AF786000BFFB
:102DAC000C37BD4680BC704780B483B000AF7860F0
:102DBC0000BF0C37BD4680BC7047000080B485B0A6
:102DCC0000AF786039600023FB730023BB607B6825
:102DDC0093F82430012B01D10223DCE07B68012223
:102DEC0083F824203B685B68062B1CD87B681B6827
:102DFC00596B3B685A6813469B001344053B1F22D2
:102E0C0002FA03F3DB4319403B6818683B685A68C5
:102E1C0013469B001344053B00FA03F27B681B68C6
:102E2C000A435A633CE03B685B680C2B1CD87B68FC
:102E3C001B68196B3B685A6813469B001344233B71
:102E4C001F2202FA03F3DB4319403B6818683B6806
:102E5C005A6813469B001344233B00FA03F27B6829
:102E6C001B680A431A631BE07B681B68D96A3B68C2
:102E7C005A6813469B001344413B1F2202FA03F38A
:102E8C00DB4319403B6818683B685A6813469B0043
:102E9C001344413B00FA03F27B681B680A43DA6275
:102EAC003B681B68092B1CD97B681B68D9683B687D
:102EBC001A6813465B0013441E3B072202FA03F305
:102ECC00DB4319403B6898683B681A6813465B0003
:102EDC0013441E3B00FA03F27B681B680A43DA605A
:102EEC0019E07B681B6819693B681A6813465B001C
:102EFC001344072202FA03F3DB4319403B6898683A
:102F0C003B681A6813465B00134400FA03F27B68B3
:102F1C001B680A431A613B681B68102B03D03B6883
:102F2C001B68112B32D17B681B681D4A934225D13B
:102F3C007B681B689B6803F40003002B26D17B681D
:102F4C001B689A687B681B6842F400029A603B68B5
:102F5C001B68102B1AD1134B1B68134AA2FB0323BB
:102F6C009A0C13469B0013445B00BB6002E0BB68E9
:102F7C00013BBB60BB68002BF9D107E07B689B6A07
:102F8C0043F020027B689A620123FB737B6800226A
:102F9C0083F82420FB7B18461437BD4680BC704751
:102FAC00002401403000002083DE1B4380B584B038
:102FBC0000AF78600023FB600023BB607B681B685C
:102FCC009B6803F00103012B40D07B681B689A6857
:102FDC007B681B6842F001029A601F4B1B681F4AFA
:102FEC00A2FB03239B0CBB6002E0BB68013BBB60F4
:102FFC00BB68002BF9D1FFF73DFBF8601FE0FFF732
:10300C0039FB0246FB68D31A022B18D97B681B6864
:10301C009B6803F00103012B11D07B689B6A43F082
:10302C0010027B689A627B68DB6A43F001027B6862
:10303C00DA627B68002283F82420012307E07B6896
:10304C001B689B6803F00103012BD8D100231846A1
:10305C001037BD4680BD00BF3000002083DE1B430F
:10306C0080B584B000AF78600023FB607B681B6880
:10307C009B6803F00103012B2ED17B681B689A68B7
:10308C007B681B6822F001029A60FFF7F3FAF86084
:10309C001BE0FFF7EFFA0246FB68D31A022B14D998
:1030AC007B681B689B6803F00103012B0DD17B68C7
:1030BC009B6A43F010027B689A627B68DB6A43F080
:1030CC0001027B68DA62012307E07B681B689B685E
:1030DC0003F00103012BDCD0002318461037BD464A
:1030EC0080BD80B483B000AF786000BF0C37BD46A4
:1030FC0080BC704780B485B000AF78607B6803F00B
:10310C000703FB600C4BDB68BB60BA684FF6FF0330
:10311C001340BB60FB681A02BB68134343F0BF63E8
:10312C0043F40033BB60044ABB68D36000BF143760
:10313C00BD4680BC704700BF00ED00E080B400AF1E
:10314C00044BDB681B0A03F007031846BD4680BC22
:10315C00704700BF00ED00E080B483B000AF0346C1
:10316C00FB7197F90730002B0BDBFB7903F01F0287
:10317C00064997F907305B09012000FA02F241F881
:10318C00232000BF0C37BD4680BC704700E100E037
:10319C0080B483B000AF03463960FB7197F90730F8
:1031AC00002B0ADB3B68DAB20C4997F907301201A5
:1031BC00D2B20B4483F800230AE03B68DAB2084928
:1031CC00FB7903F00F03043B1201D2B20B441A76C5
:1031DC0000BF0C37BD4680BC704700BF00E100E06B
:1031EC0000ED00E080B489B000AFF860B9607A609F
:1031FC00FB6803F00703FB61FB69C3F10703042BB6
:10320C0028BF0423BB61FB690433062B02D9FB697D
:10321C00033B00E000237B614FF0FF32BB6902FAF5
:10322C0003F3DA43BB681A407B699A404FF0FF31D5
:10323C007B6901FA03F3D9437B680B4013431846AF
:10324C002437BD4680BC704780B582B000AF786033
:10325C007B68013BB3F1807F01D301230FE00A4A65
:10326C007B68013B53600F214FF0FF30FFF790FF5D
:10327C00054B00229A60044B07221A600023184663
:10328C000837BD4680BD00BF10E000E080B582B0BD
:10329C0000AF78607868FFF72DFF00BF0837BD4698
:1032AC0080BD80B586B000AF0346B9607A60FB7311
:1032BC0000237B61FFF742FF78617A68B96878690F
:1032CC00FFF790FF024697F90F3011461846FFF7AB
:1032DC005FFF00BF1837BD4680BD80B582B000AF20
:1032EC000346FB7197F907301846FFF735FF00BF0F
:1032FC000837BD4680BD80B582B000AF7860786875
:10330C00FFF7A2FF034618460837BD4680BD0000F4
:10331C0080B584B000AF78600023FB737B6893F8B2
:10332C002130022B05D07B6804229A630123FB73A6
:10333C0051E07B681B681A687B681B6822F00E02E0
:10334C001A607B681B681A687B681B6822F0010294
:10335C001A607B681B68224A934229D07B681B68E1
:10336C00204A934222D07B681B681F4A93421AD092
:10337C007B681B681D4A934212D07B681B681C4AF1
:10338C0093420AD07B681B681A4A934202D14FF4CD
:10339C0080130EE04FF080730BE04FF4803308E0A5
:1033AC004FF4805305E04FF4807302E0102300E0EB
:1033BC000123114A53607B68012283F821207B682A
:1033CC00002283F820207B685B6B002B03D07B688A
:1033DC005B6B78689847FB7B18461037BD4680BD01
:1033EC00080002401C000240300002404400024031
:1033FC00580002406C0002400000024080B48BB0C8
:10340C0000AF7860396000237B6200233B6269E186
:10341C0001227B6A02FA03F3FB613B681B68FA69C1
:10342C001340BB61BA69FB699A4240F058813B6812
:10343C005B689A4A93425ED0984A934275D8984AF0
:10344C00934258D0964A93426FD8964A934252D0A0
:10345C00944A934269D8944A93424CD0924A9342EC
:10346C0063D8924A934246D0904A93425DD8122B2D
:10347C002AD8122B59D801A252F823F00335000890
:10348C00DD340008EF34000831350008373500080A
:10349C003735000837350008373500083735000850
:1034AC003735000837350008373500083735000840
:1034BC003735000837350008373500083735000830
:1034CC00E5340008F9340008794A934213D02CE013
:1034DC003B68DB683B6229E03B68DB6804333B629A
:1034EC0024E03B68DB6808333B621FE03B68DB6829
:1034FC000C333B621AE03B689B68002B02D104231F
:10350C003B6213E03B689B68012B05D108233B62AF
:10351C007B68FA691A6109E008233B627B68FA69E7
:10352C005A6103E000233B6200E000BFBB69FF2B44
:10353C0001D87B6801E07B6804337B61BB69FF2B9E
:10354C0002D87B6A9B0002E07B6A083B9B003B61D4
:10355C007B691A680F213B6901FA03F3DB431A40BC
:10356C00396A3B6901FA03F31A437B691A603B68B9
:10357C005B6803F08053002B00F0B1804D4B9B69CE
:10358C004C4A43F0010393614A4B9B6903F00103DE
:10359C00BB60BB68484A7B6A9B08023352F82330F5
:1035AC00FB607B6A03F003039B000F2202FA03F318
:1035BC00DB43FA681340FB607B68404A934213D0AC
:1035CC007B683F4A93420DD07B683E4A934207D0BA
:1035DC007B683D4A934201D1032306E0042304E0B7
:1035EC00022302E0012300E000237A6A02F00302C6
:1035FC0092009340FA681343FB602F497B6A9B0847
:10360C000233FA6841F823203B685B6803F480338B
:10361C00002B06D02D4B1A682C49BB6913430B6049
:10362C0006E02A4B1A68BB69DB43284913400B6040
:10363C003B685B6803F40033002B06D0234B5A68BD
:10364C002249BB6913434B6006E0204B5A68BB69A7
:10365C00DB431E4913404B603B685B6803F48013EB
:10366C00002B06D0194B9A681849BB6913438B6021
:10367C0006E0164B9A68BB69DB43144913408B6018
:10368C003B685B6803F40013002B21D00F4BDA6806
:10369C000E49BB691343CB6021E000BF0000321020
:1036AC000000311000002210000021100000121048
:1036BC000000111000100240000001400008014001
:1036CC00000C0140001001400014014000040140B6
:1036DC000B4BDA68BB69DB4309491340CB607B6A4F
:1036EC0001337B623B681A687B6A22FA03F3002B76
:1036FC007FF48EAE00BF00BF2C37BD4680BC704738
:10370C000004014080B485B000AF78600B467B802C
:10371C007B689A687B881340002B02D00123FB73D3
:10372C0001E00023FB73FB7B18461437BD4680BCBD
:10373C00704780B483B000AF78600B467B80134633
:10374C007B707B78002B03D07A887B681A6103E04E
:10375C007B881A047B681A6100BF0C37BD4680BC9D
:10376C00704780B485B000AF78600B467B807B6877
:10377C00DB68FB607A88FB6813401A04FB68D9434A
:10378C007B880B401A437B681A6100BF1437BD4617
:10379C0080BC704780B582B000AF0346FB80084BFD
:1037AC005A69FB881340002B06D0054AFB885361ED
:1037BC00FB881846FDF7A6FA00BF0837BD4680BD4A
:1037CC000004014080B586B000AF78607B68002BA8
:1037DC0001D1012372E27B681B6803F00103002B0B
:1037EC0000F08780924B5B6803F00C03042B0CD029
:1037FC008F4B5B6803F00C03082B12D18C4B5B686E
:10380C0003F48033B3F5803F0BD1894B1B6803F471
:10381C000033002B6CD07B685B68002B68D10123D4
:10382C004CE27B685B68B3F5803F06D1804B1B682C
:10383C007F4A43F4803313602EE07B685B68002B77
:10384C000CD17B4B1B687A4A23F480331360784B82
:10385C001B68774A23F4802313601DE07B685B6848
:10386C00B3F5A02F0CD1724B1B68714A43F4802323
:10387C0013606F4B1B686E4A43F4803313600BE08C
:10388C006B4B1B686A4A23F480331360684B1B68CC
:10389C00674A23F4802313607B685B68002B13D08A
:1038AC00FEF7E8FE386108E0FEF7E4FE02463B69ED
:1038BC00D31A642B01D9032300E25D4B1B6803F47C
:1038CC000033002BF0D014E0FEF7D4FE386108E092
:1038DC00FEF7D0FE02463B69D31A642B01D90323B1
:1038EC00ECE1534B1B6803F40033002BF0D100E0E8
:1038FC0000BF7B681B6803F00203002B63D04C4BAA
:10390C005B6803F00C03002B0BD0494B5B6803F096
:10391C000C03082B1CD1464B5B6803F48033002B43
:10392C0016D1434B1B6803F00203002B05D07B68B8
:10393C001B69012B01D00123C0E13D4B1B6823F017
:10394C00F8027B685B69DB00394913430B603AE092
:10395C007B681B69002B20D0364B01221A60FEF7C6
:10396C0089FE386108E0FEF785FE02463B69D31AF2
:10397C00022B01D90323A1E12D4B1B6803F0020399
:10398C00002BF0D02A4B1B6823F0F8027B685B6994
:10399C00DB00274913430B6015E0264B00221A600D
:1039AC00FEF768FE386108E0FEF764FE02463B69EC
:1039BC00D31A022B01D9032380E11D4B1B6803F0A2
:1039CC000203002BF0D17B681B6803F00803002B6B
:1039DC003AD07B689B69002B19D0174B01221A60D7
:1039EC00FEF748FE386108E0FEF744FE02463B69EC
:1039FC00D31A022B01D9032360E10D4B5B6A03F050
:103A0C000203002BF0D0012000F0D8FA1CE00A4B86
:103A1C0000221A60FEF72EFE38610FE0FEF72AFE38
:103A2C0002463B69D31A022B08D9032346E100BF97
:103A3C00001002400000424280044242924B5B6AFA
:103A4C0003F00203002BE9D17B681B6803F004032D
:103A5C00002B00F0A6800023FB758B4BDB6903F079
:103A6C008053002B0DD1884BDB69874A43F0805380
:103A7C00D361854BDB6903F08053BB60BB680123CA
:103A8C00FB75824B1B6803F48073002B18D17F4BA2
:103A9C001B687E4A43F480731360FEF7EBFD3861BC
:103AAC0008E0FEF7E7FD02463B69D31A642B01D907
:103ABC00032303E1754B1B6803F48073002BF0D0D8
:103ACC007B68DB68012B06D16F4B1B6A6E4A43F097
:103ADC00010313622DE07B68DB68002B0CD16A4B71
:103AEC001B6A694A23F001031362674B1B6A664A1F
:103AFC0023F0040313621CE07B68DB68052B0CD1FC
:103B0C00614B1B6A604A43F0040313625E4B1B6AF1
:103B1C005D4A43F0010313620BE05B4B1B6A5A4A8C
:103B2C0023F001031362584B1B6A574A23F004031A
:103B3C0013627B68DB68002B15D0FEF79BFD3861A8
:103B4C000AE0FEF797FD02463B69D31A41F2883230
:103B5C00934201D90323B1E04B4B1B6A03F00203E0
:103B6C00002BEED014E0FEF785FD38610AE0FEF77D
:103B7C0081FD02463B69D31A41F28832934201D946
:103B8C0003239BE0404B1B6A03F00203002BEED196
:103B9C00FB7D012B05D13C4BDB693B4A23F0805369
:103BAC00D3617B68DB69002B00F08780364B5B6848
:103BBC0003F00C03082B61D07B68DB69022B46D128
:103BCC00334B00221A60FEF755FD386108E0FEF712
:103BDC0051FD02463B69D31A022B01D903236DE038
:103BEC00294B1B6803F00073002BF0D17B681B6A18
:103BFC00B3F5803F08D1244B5B6823F400327B681B
:103C0C009B68214913434B601F4B5B6823F4741270
:103C1C007B68196A7B685B6A0B431B4913434B60D7
:103C2C001B4B01221A60FEF725FD386108E0FEF7F8
:103C3C0021FD02463B69D31A022B01D903233DE037
:103C4C00114B1B6803F00073002BF0D035E0104BC8
:103C5C0000221A60FEF70EFD386108E0FEF70AFD3F
:103C6C0002463B69D31A022B01D9032326E0064BEB
:103C7C001B6803F00073002BF0D11EE07B68DB693E
:103C8C00012B07D1012319E0001002400070004005
:103C9C00600042420B4B5B68FB60FB6803F48032B4
:103CAC007B681B6A9A4206D1FB6803F470127B682E
:103CBC005B6A9A4201D0012300E0002318461837B2
:103CCC00BD4680BD0010024080B584B000AF786066
:103CDC0039607B68002B01D10123D0E06A4B1B6853
:103CEC0003F007033A689A4210D9674B1B6823F01C
:103CFC00070265493B6813430B60634B1B6803F079
:103D0C0007033A689A4201D00123B8E07B681B682C
:103D1C0003F00203002B20D07B681B6803F0040324
:103D2C00002B05D0594B5B68584A43F4E063536051
:103D3C007B681B6803F00803002B05D0534B5B68B2
:103D4C00524A43F460535360504B5B6823F0F002CB
:103D5C007B689B684D4913434B607B681B6803F081
:103D6C000103002B40D07B685B68012B07D1474BCC
:103D7C001B6803F40033002B15D101237FE07B6813
:103D8C005B68022B07D1414B1B6803F00073002BBF
:103D9C0009D1012373E03D4B1B6803F00203002B98
:103DAC0001D101236BE0394B5B6823F003027B6884
:103DBC005B68364913434B60FEF75CFCF8600AE025
:103DCC00FEF758FC0246FB68D31A41F28832934244
:103DDC0001D9032353E02D4B5B6803F00C027B6885
:103DEC005B689B009A42EBD1274B1B6803F00703DF
:103DFC003A689A4210D2244B1B6823F007022249DE
:103E0C003B6813430B60204B1B6803F007033A68B5
:103E1C009A4201D0012332E07B681B6803F0040353
:103E2C00002B08D0194B5B6823F4E0627B68DB68DD
:103E3C00164913434B607B681B6803F00803002B87
:103E4C0009D0124B5B6823F460527B681B69DB0062
:103E5C000E4913434B6000F021F802460B4B5B6894
:103E6C001B0903F00F030A49CB5C22FA03F3094A3E
:103E7C001360094B1B681846FEF7BAFB0023184663
:103E8C001037BD4680BD00BF00200240001002402C
:103E9C00947B0008300000203400002090B48AB0DD
:103EAC0000AF294B3C1D0FCB84E80F0040F20123DF
:103EBC003B800023FB610023BB6100237B6200235A
:103ECC007B6100233B62214B5B68FB61FB6903F068
:103EDC000C03042B02D0082B03D02BE01C4B3B62B1
:103EEC002BE0FB699B0C03F00F0328333B4413F8C6
:103EFC00243C7B61FB6903F48033002B12D0134B01
:103F0C005B685B0C03F0010328333B4413F8283C3B
:103F1C00BB617B690E4A03FB02F2BB69B2FBF3F394
:103F2C007B6204E07B690B4A02FB03F37B627B6AD6
:103F3C003B6202E0064B3B6200BF3B6A18462837E7
:103F4C00BD4690BC704700BF38740008001002409A
:103F5C0000127A0000093D0080B400AF024B1B68D0
:103F6C001846BD4680BC70473000002080B500AFBD
:103F7C00FFF7F2FF0246054B5B681B0A03F00703D1
:103F8C000349CB5C22FA03F3184680BD00100240B3
:103F9C00A47B000880B500AFFFF7DEFF0246054B9F
:103FAC005B68DB0A03F007030349CB5C22FA03F3DB
:103FBC00184680BD00100240A47B000880B485B078
:103FCC0000AF78600A4B1B680A4AA2FB03235B0A0A
:103FDC007A6802FB03F3FB6000BFFB685A1EFA60B1
:103FEC00002BF9D100BF00BF1437BD4680BC704711
:103FFC0030000020D34D621080B586B000AF7860E1
:10400C0000233B610023FB607B681B6803F001030A
:10401C00002B7DD00023FB754F4BDB6903F08053E5
:10402C00002B0DD14C4BDB694B4A43F08053D361D1
:10403C00494BDB6903F08053BB60BB680123FB7504
:10404C00464B1B6803F48073002B18D1434B1B6841
:10405C00424A43F480731360FEF70CFB386108E0AE
:10406C00FEF708FB02463B69D31A642B01D90323E4
:10407C006DE03A4B1B6803F48073002BF0D0364B89
:10408C001B6A03F44073FB60FB68002B2ED07B682B
:10409C005B6803F44073FA689A4227D02E4B1B6A74
:1040AC0023F44073FB602E4B01221A602C4B002230
:1040BC001A60294AFB681362FB6803F00103002BAA
:1040CC0014D0FEF7D7FA38610AE0FEF7D3FA0246AD
:1040DC003B69D31A41F28832934201D9032336E06B
:1040EC001D4B1B6A03F00203002BEED01A4B1B6A0C
:1040FC0023F440727B685B68174913430B62FB7DAA
:10410C00012B05D1144BDB69134A23F08053D36187
:10411C007B681B6803F00203002B08D00E4B5B6816
:10412C0023F440427B689B680B4913434B607B68CC
:10413C001B6803F01003002B08D0074B5B6823F4BB
:10414C0080027B68DB68044913434B6000231846EC
:10415C001837BD4680BD00BF001002400070004003
:10416C004004424290B58DB000AF7860584B07F1D7
:10417C000C040FCB84E80F0040F201233B81002399
:10418C007B620023FB6200233B620023FB61002364
:10419C00BB627B68102B0AD07B68102B00F28E80E0
:1041AC007B68012B49D07B68022B79D086E0494B88
:1041BC005B68FB61474B1B6803F08073002B7FD05F
:1041CC00FB699B0C03F00F0330333B4413F8243C86
:1041DC003B62FB6903F48033002B17D03D4B5B68CB
:1041EC005B0C03F0010330333B4413F8283C7B6237
:1041FC00FB6903F48033002B0DD0374A7B6AB2FB8A
:10420C00F3F23B6A02FB03F3FB6204E03B6A334AC2
:10421C0002FB03F3FB622F4B5B6803F48003B3F5E3
:10422C00800F02D1FB6ABB624AE0FB6A5B002C4A3E
:10423C00A2FB03235B08BB6242E0264B1B6AFB61BB
:10424C00FB6903F44073B3F5807F08D1FB6903F07D
:10425C000203002B03D04FF40043BB621FE0FB6949
:10426C0003F44073B3F5007F09D11A4B5B6A03F07A
:10427C000203002B03D049F64043BB620FE0FB69FD
:10428C0003F44073B3F5407F1CD1124B1B6803F44D
:10429C000033002B16D04FF22443BB6212E011E026
:1042AC00FFF778FE02460B4B5B689B0B03F0030396
:1042BC0001335B00B2FBF3F3BB6204E000BF02E02E
:1042CC0000BF00E000BFBB6A18463437BD4690BD46
:1042DC00487400080010024000127A0000093D00EA
:1042EC00ABAAAAAA80B582B000AF78607B68002B1D
:1042FC0001D1012376E07B685B6A002B08D17B68D7
:10430C005B68B3F5827F09D07B680022DA6105E037
:10431C007B6800221A617B6800225A617B6800224C
:10432C009A627B6893F85130DBB2002B06D17B6824
:10433C00002283F850207868FDF740FF7B6802224A
:10434C0083F851207B681B681A687B681B6822F015
:10435C0040021A607B685B6803F482727B689B681E
:10436C0003F404431A437B68DB6803F400631A43C9
:10437C007B681B6903F002031A437B685B6903F0DB
:10438C0001031A437B689B6903F400731A437B682F
:10439C00DB6903F038031A437B681B6A03F0800364
:1043AC0042EA03017B689B6A03F400527B681B683A
:1043BC000A431A607B689B691A0C7B681B6802F0C5
:1043CC0004025A607B681B68DA697B681B6822F4FC
:1043DC000062DA617B6800225A657B68012283F8EF
:1043EC005120002318460837BD4680BD80B588B0E3
:1043FC0000AFF860B9603B601346FB800023FB778D
:10440C00FB6893F85030012B01D1022326E1FB68A5
:10441C00012283F85020FEF72DF9B861FB88FB824E
:10442C00FB6893F85130DBB2012B02D00223FB77EF
:10443C000BE1BB68002B02D0FB88002B02D10123BF
:10444C00FB7702E1FB68032283F85120FB68002212
:10445C005A65FB68BA681A63FB68FA889A86FB6827
:10446C00FA88DA86FB6800229A63FB6800229A8736
:10447C00FB680022DA87FB6800225A64FB68002282
:10448C001A64FB689B68B3F5004F0FD1FB681B687F
:10449C001A68FB681B6822F040021A60FB681B68F4
:1044AC001A68FB681B6842F480421A60FB681B6840
:1044BC001B6803F04003402B07D0FB681B681A688D
:1044CC00FB681B6842F040021A60FB68DB68B3F5BE
:1044DC00006F4BD1FB685B68002B02D0FB8A012B71
:1044EC003ED1FB681B6B1A88FB681B68DA60FB68A3
:1044FC001B6B9A1CFB681A63FB68DB8E9BB2013B3F
:10450C009AB2FB68DA862BE0FB681B689B6803F0A9
:10451C000203022B12D1FB681B6B1A88FB681B6809
:10452C00DA60FB681B6B9A1CFB681A63FB68DB8EFA
:10453C009BB2013B9AB2FB68DA8611E0FEF79AF85F
:10454C000246BB69D31A3A689A4203D83B68B3F166
:10455C00FF3F02D13B68002B02D10323FB7774E0B1
:10456C00FB68DB8E9BB2002BCED14CE0FB685B680A
:10457C00002B02D0FB8A012B40D1FB681A6BFB6825
:10458C001B680C3312781A70FB681B6B5A1CFB6887
:10459C001A63FB68DB8E9BB2013B9AB2FB68DA862E
:1045AC002CE0FB681B689B6803F00203022B13D101
:1045BC00FB681A6BFB681B680C3312781A70FB686B
:1045CC001B6B5A1CFB681A63FB68DB8E9BB2013BAE
:1045DC009AB2FB68DA8611E0FEF74CF80246BB692A
:1045EC00D31A3A689A4203D83B68B3F1FF3F02D121
:1045FC003B68002B02D10323FB7726E0FB68DB8EA4
:10460C009BB2002BCDD1BA693968F86800F01AFE5C
:10461C000346002B02D0FB6820225A65FB689B687E
:10462C00002B0AD100233B61FB681B68DB683B61F4
:10463C00FB681B689B683B613B69FB685B6D002BEF
:10464C0002D00123FB7700E000BFFB68012283F856
:10465C005120FB68002283F85020FB7F184620373E
:10466C00BD4680BD80B588B002AFF860B9603B60D4
:10467C001346FB800023FB75FB685B68B3F5827FF8
:10468C0012D1FB689B68002B0ED1FB68042283F8C7
:10469C005120FA883B6800931346BA68B968F868E9
:1046AC0000F0F1F80346EAE0FB6893F85030012B78
:1046BC0001D10223E3E0FB68012283F85020FDF7CF
:1046CC00D9FF3861FB6893F85130DBB2012B02D073
:1046DC000223FB75CAE0BB68002B02D0FB88002BC1
:1046EC0002D10123FB75C1E0FB68042283F8512041
:1046FC00FB6800225A65FB68BA689A63FB68FA8803
:10470C009A87FB68FA88DA87FB6800221A63FB68D1
:10471C0000229A86FB680022DA86FB6800221A6463
:10472C00FB6800225A64FB689B68B3F5004F0FD1FD
:10473C00FB681B681A68FB681B6822F040021A6051
:10474C00FB681B681A68FB681B6822F480421A60BD
:10475C00FB681B681B6803F04003402B07D0FB6809
:10476C001B681A68FB681B6842F040021A60FB6801
:10477C00DB68002B62D12EE0FB681B689B6803F0A2
:10478C000103012B15D1FB681B6803F10C02FB68BC
:10479C009B6B1278D2B21A70FB689B6B5A1CFB682D
:1047AC009A63FB68DB8F9BB2013B9AB2FB68DA879A
:1047BC0011E0FDF75FFF02463B69D31A3A689A4253
:1047CC0003D83B68B3F1FF3F02D13B68002B02D109
:1047DC000323FB754AE0FB68DB8F9BB2002BCBD12C
:1047EC0031E0FB681B689B6803F00103012B13D1BC
:1047FC00FB681B68DA68FB689B6B92B21A80FB68DB
:10480C009B6B9A1CFB689A63FB68DB8F9BB2013B2A
:10481C009AB2FB68DA8711E0FDF72CFF02463B6980
:10482C00D31A3A689A4203D83B68B3F1FF3F02D1DE
:10483C003B68002B02D10323FB7517E0FB68DB8F71
:10484C009BB2002BCDD13A693968F86800F0A8FC0E
:10485C000346002B02D0FB6820225A65FB685B6D77
:10486C00002B02D00123FB7500E000BFFB68012286
:10487C0083F85120FB68002283F85020FB7D1846FA
:10488C001837BD4680BD80B58CB000AFF860B960FC
:10489C007A607B800123FB62002387F82B30FB6856
:1048AC0093F85030012B01D102238AE1FB680122DD
:1048BC0083F85020FDF7DEFE7862FB6893F85130E8
:1048CC0087F82330FB685B68FB617B887B8397F8F8
:1048DC002330012B0FD0FB69B3F5827F07D1FB6826
:1048EC009B68002B03D197F82330042B03D00223B1
:1048FC0087F82B305BE1BB68002B05D07B68002B65
:10490C0002D07B88002B03D1012387F82B304EE19A
:10491C00FB6893F85130DBB2042B03D0FB68052203
:10492C0083F85120FB6800225A65FB687A689A6309
:10493C00FB687A88DA87FB687A889A87FB68BA689A
:10494C001A63FB687A88DA86FB687A889A86FB6831
:10495C0000221A64FB6800225A64FB681B681B68FF
:10496C0003F04003402B07D0FB681B681A68FB68F8
:10497C001B6842F040021A60FB68DB68B3F5006FFD
:10498C0078D1FB685B68002B02D07B8B012B66D146
:10499C00FB681B6B1A88FB681B68DA60FB681B6B77
:1049AC009A1CFB681A63FB68DB8E9BB2013B9AB2C4
:1049BC00FB68DA8653E0FB681B689B6803F0020314
:1049CC00022B1BD1FB68DB8E9BB2002B16D0FB6A33
:1049DC00012B13D1FB681B6B1A88FB681B68DA6010
:1049EC00FB681B6B9A1CFB681A63FB68DB8E9BB223
:1049FC00013B9AB2FB68DA860023FB62FB681B68FA
:104A0C009B6803F00103012B19D1FB68DB8F9BB270
:104A1C00002B14D0FB681B68DA68FB689B6B92B2A6
:104A2C001A80FB689B6B9A1CFB689A63FB68DB8F94
:104A3C009BB2013B9AB2FB68DA870123FB62FDF75C
:104A4C0019FE02467B6AD31ABA6B9A4207D8BB6B23
:104A5C00B3F1FF3F03D0032387F82B30A7E0FB68AB
:104A6C00DB8E9BB2002BA6D1FB68DB8F9BB2002B9D
:104A7C00A1D17CE0FB685B68002B02D07B8B012B07
:104A8C006BD1FB681A6BFB681B680C3312781A70BD
:104A9C00FB681B6B5A1CFB681A63FB68DB8E9BB2B2
:104AAC00013B9AB2FB68DA8657E0FB681B689B688F
:104ABC0003F00203022B1CD1FB68DB8E9BB2002B94
:104ACC0017D0FB6A012B14D1FB681A6BFB681B68AF
:104ADC000C3312781A70FB681B6B5A1CFB681A6338
:104AEC00FB68DB8E9BB2013B9AB2FB68DA86002333
:104AFC00FB62FB681B689B6803F00103012B19D157
:104B0C00FB68DB8F9BB2002B14D0FB681B68DA6848
:104B1C00FB689B6BD2B21A70FB689B6B5A1CFB68D0
:104B2C009A63FB68DB8F9BB2013B9AB2FB68DA8716
:104B3C000123FB62FDF79EFD02467B6AD31ABA6B1A
:104B4C009A4203D8BB6BB3F1FF3F02D1BB6B002B76
:104B5C0003D1032387F82B3029E0FB68DB8E9BB253
:104B6C00002BA2D1FB68DB8F9BB2002B9DD17A6A04
:104B7C00B96BF86800F066FB0346002B06D00123E6
:104B8C0087F82B30FB6820225A6510E0FB689B6885
:104B9C00002B0BD100237B61FB681B68DB687B61FE
:104BAC00FB681B689B687B617B6900E000BFFB684E
:104BBC00012283F85120FB68002283F8502097F8DB
:104BCC002B3018463037BD4680BD000080B487B00E
:104BDC0000AFF860B9607A607B800023FB75FB68DE
:104BEC0093F85030012B01D1022375E0FB680122B0
:104BFC0083F85020FB6893F85130BB75FB685B68F9
:104C0C003B61BB7D012B0DD03B69B3F5827F06D197
:104C1C00FB689B68002B02D1BB7D042B02D00223C6
:104C2C00FB7554E0BB68002B05D07B68002B02D0D1
:104C3C007B88002B02D10123FB7548E0FB6893F8BD
:104C4C005130DBB2042B03D0FB68052283F85120D2
:104C5C00FB6800225A65FB68BA681A63FB687A889D
:104C6C009A86FB687A88DA86FB687A689A63FB68AE
:104C7C007A889A87FB687A88DA87FB68DB68002B6E
:104C8C0006D0FB68174A1A64FB68174A5A6405E099
:104C9C00FB68164A1A64FB68154A5A64FB681B6861
:104CAC005A68FB681B6842F0E0025A60FB681B689C
:104CBC001B6803F04003402B08D0FB681B681A6884
:104CCC00FB681B6842F040021A6000E000BFFB6802
:104CDC00002283F85020FB7D18461C37BD4680BC53
:104CEC00704700BFDD4F00083D500008194F000809
:104CFC007D4F000880B588B000AF78607B681B687A
:104D0C005B68FB617B681B689B68BB61BB699B092B
:104D1C0003F00103002B0FD1BB6903F00103002B3F
:104D2C000AD0FB699B0903F00103002B04D07B68BC
:104D3C001B6C78689847BEE0BB695B0803F0010305
:104D4C00002B0AD0FB69DB0903F00103002B04D014
:104D5C007B685B6C78689847ADE0BB695B0903F0D6
:104D6C000103002B06D1BB699B0903F00103002B47
:104D7C0000F0A180FB695B0903F00103002B00F03C
:104D8C009A80BB699B0903F00103002B23D07B683D
:104D9C0093F85130DBB2032B11D07B685B6D43F081
:104DAC0004027B685A6500237B617B681B68DB68A7
:104DBC007B617B681B689B687B617B690BE00023D4
:104DCC003B617B681B68DB683B617B681B689B688D
:104DDC003B613B696FE0BB695B0903F00103002B8E
:104DEC0014D07B685B6D43F001027B685A6500232D
:104DFC00FB607B681B689B68FB607B681B681A68A0
:104E0C007B681B6822F040021A60FB687B685B6D54
:104E1C00002B4FD07B681B685A687B681B6822F09C
:104E2C00E0025A607B68012283F85120FB6903F091
:104E3C000203002B04D1FB6903F00103002B34D0D7
:104E4C007B681B685A687B681B6822F003025A60F7
:104E5C007B68DB6C002B11D07B68DB6C174A5A63C8
:104E6C007B68DB6C1846FEF753FA0346002B05D023
:104E7C007B685B6D43F040027B685A657B689B6C7A
:104E8C00002B16D07B689B6C0C4A5A637B689B6C1E
:104E9C001846FEF73DFA0346002B0AD07B685B6D83
:104EAC0043F040027B685A6503E0786800F011F823
:104EBC0000E000BF00BF2037BD4680BDF14E0008AA
:104ECC0080B483B000AF786000BF0C37BD4680BCA7
:104EDC00704780B483B000AF786000BF0C37BD461C
:104EEC0080BC704780B584B000AF78607B685B6A2B
:104EFC00FB60FB680022DA87FB680022DA86F86820
:104F0C00FFF7E7FF00BF1037BD4680BD80B582B00C
:104F1C0000AF78607B681B6803F10C027B689B6BAD
:104F2C001278D2B21A707B689B6B5A1C7B689A639E
:104F3C007B68DB8F9BB2013B9AB27B68DA877B681C
:104F4C00DB8F9BB2002B0FD17B681B685A687B6888
:104F5C001B6822F060025A607B68DB8E9BB2002BD0
:104F6C0002D1786800F08CF900BF0837BD4680BDCF
:104F7C0080B582B000AF78607B681A6B7B681B6869
:104F8C000C3312781A707B681B6B5A1C7B681A6383
:104F9C007B68DB8E9BB2013B9AB27B68DA867B68BE
:104FAC00DB8E9BB2002B0FD17B681B685A687B6829
:104FBC001B6822F080025A607B68DB8F9BB2002B4F
:104FCC0002D1786800F05CF900BF0837BD4680BD9F
:104FDC0080B582B000AF78607B681B68DA687B684C
:104FEC009B6B92B21A807B689B6B9A1C7B689A6352
:104FFC007B68DB8F9BB2013B9AB27B68DA877B685C
:10500C00DB8F9BB2002B0FD17B681B685A687B68C7
:10501C001B6822F040025A607B68DB8E9BB2002B2F
:10502C0002D1786800F02CF900BF0837BD4680BD6E
:10503C0080B582B000AF78607B681B6B1A887B6888
:10504C001B68DA607B681B6B9A1C7B681A637B6835
:10505C00DB8E9BB2013B9AB27B68DA867B68DB8E77
:10506C009BB2002B0FD17B681B685A687B681B684E
:10507C0022F080025A607B68DB8F9BB2002B02D13E
:10508C00786800F0FDF800BF0837BD4680BD000011
:10509C0080B588B000AFF860B9603B601346FB7117
:1050AC00FDF7E8FA0246BB6A9B1A3A681344FB61A7
:1050BC00FDF7E0FAB861394B1B685B011B0DFA690F
:1050CC0002FB03F37B6154E03B68B3F1FF3F50D02C
:1050DC00FDF7D0FA0246BB69D31AFA699A4202D993
:1050EC00FB69002B3DD1FB681B685A68FB681B6889
:1050FC0022F0E0025A60FB685B68B3F5827F11D145
:10510C00FB689B68B3F5004F04D0FB689B68B3F554
:10511C00806F07D1FB681B681A68FB681B6822F05C
:10512C0040021A60FB689B6AB3F5005F0FD1FB6805
:10513C001B681A68FB681B6822F400521A60FB6833
:10514C001B681A68FB681B6842F400521A60FB6803
:10515C00012283F85120FB68002283F8502003239E
:10516C0017E07B69002B01D10023FB617B69013BBC
:10517C007B61FB681B689A68BB681340BA689A42EB
:10518C000CBF01230023DBB21A46FB799A429BD158
:10519C00002318462037BD4680BD00BF30000020DC
:1051AC0080B586B002AFF860B9607A60FB685B6866
:1051BC00B3F5827F11D1FB689B68B3F5004F04D027
:1051CC00FB689B68B3F5806F07D1FB681B681A6896
:1051DC00FB681B6822F040021A60FB685B68B3F541
:1051EC00827F17D1FB689B68B3F5806F12D17B6807
:1051FC000093BB6800220121F868FFF749FF0346C2
:10520C00002B1AD0FB685B6D43F02002FB685A65DB
:10521C00032313E07B680093BB6800228021F868AD
:10522C00FFF736FF0346002B07D0FB685B6D43F09E
:10523C002002FB685A65032300E000231846103750
:10524C00BD4680BD80B586B002AFF860B9607A60AB
:10525C007B680093BB6800228021F868FFF718FF79
:10526C000346002B07D0FB685B6D43F02002FB6804
:10527C005A65032300E0002318461037BD4680BD55
:10528C0080B586B000AF7860354B1B68354AA2FB01
:10529C0003235B0A642202FB03F33B61FDF7EAF98B
:1052AC0078617B681B685A687B681B6822F0200257
:1052BC005A603B69002B06D17B685B6D43F0200282
:1052CC007B685A6509E03B69013B3B617B681B6865
:1052DC009B6803F00203002BEBD07A696421786899
:1052EC00FFF7B0FF0346002B05D07B685B6D43F0E6
:1052FC0020027B685A657B689B68002B0AD10023CF
:10530C00FB607B681B68DB68FB607B681B689B68C9
:10531C00FB60FB687B685B6D002B15D17B6893F899
:10532C005130DBB2042B07D17B68012283F851206A
:10533C007868FFF7C5FD0EE07B68012283F85120E9
:10534C007868FBF7EFFD06E07B68012283F85120BB
:10535C007868FFF7BEFD00BF1837BD4680BD00BFA3
:10536C0030000020F119760580B582B000AF78606E
:10537C007B68002B01D1012341E07B6893F83D3021
:10538C00DBB2002B06D17B68002283F83C207868C6
:10539C00FCF7A2FF7B68022283F83D207B681A6829
:1053AC007B6804331946104600F002FB7B6801222F
:1053BC0083F846207B68012283F83E207B6801221B
:1053CC0083F83F207B68012283F840207B68012210
:1053DC0083F841207B68012283F842207B680122FC
:1053EC0083F843207B68012283F844207B680122E8
:1053FC0083F845207B68012283F83D200023184662
:10540C000837BD4680BD000080B485B000AF786021
:10541C007B6893F83D30DBB2012B01D0012332E0E5
:10542C007B68022283F83D207B681B68184A9342F4
:10543C000ED07B681B68B3F1804F09D07B681B686A
:10544C00144A934204D07B681B68134A934211D1CF
:10545C007B681B689B6803F00703FB60FB68062BEB
:10546C0010D07B681B681A687B681B6842F00102CD
:10547C001A6007E07B681B681A687B681B6842F03F
:10548C0001021A60002318461437BD4680BC7047D1
:10549C00002C0140000400400008004080B582B0A0
:1054AC0000AF78607B68002B01D1012341E07B6861
:1054BC0093F83D30DBB2002B06D17B68002283F8D9
:1054CC003C20786800F039F87B68022283F83D2094
:1054DC007B681A687B6804331946104600F068FA3A
:1054EC007B68012283F846207B68012283F83E20EA
:1054FC007B68012283F83F207B68012283F84020DF
:10550C007B68012283F841207B68012283F84220CA
:10551C007B68012283F843207B68012283F84420B6
:10552C007B68012283F845207B68012283F83D20AB
:10553C00002318460837BD4680BD80B483B000AF49
:10554C00786000BF0C37BD4680BC704780B582B018
:10555C0000AF786039607B68002B01D1012341E0FA
:10556C007B6893F83D30DBB2002B06D17B680022C0
:10557C0083F83C20786800F039F87B68022283F8C5
:10558C003D207B681A687B6804331946104600F08E
:10559C000FFA7B681B681A687B681B6822F008028C
:1055AC001A607B681B6819687B681B683A680A4339
:1055BC001A607B68012283F846207B68012283F8FD
:1055CC003E207B68012283F83F207B68012283F810
:1055DC0042207B68012283F843207B68012283F8F8
:1055EC003D20002318460837BD4680BD80B483B0EB
:1055FC0000AF786000BF0C37BD4680BC7047000020
:10560C0080B584B000AF786039607B6893F83E3029
:10561C00FB737B6893F83F30BB737B6893F8423025
:10562C007B737B6893F843303B73FB7B012B08D176
:10563C00BB7B012B05D17B7B012B02D13B7B012B4F
:10564C0001D001232BE07B68022283F83E207B688B
:10565C00022283F83F207B68022283F842207B6879
:10566C00022283F843207B681B6801220021184624
:10567C0000F01EFC7B681B6801220421184600F018
:10568C0017FC7B681B68084A934207D17B681B6830
:10569C005A6C7B681B6842F400425A64002318461B
:1056AC001037BD4680BD00BF002C014080B584B0D2
:1056BC0000AFF860B9607A60FB6893F83C30012B5E
:1056CC0001D10223ACE0FB68012283F83C207B680B
:1056DC000C2B00F29F8001A252F823F01D570008FA
:1056EC002158000821580008215800085D5700086F
:1056FC002158000821580008215800089F5700081D
:10570C00215800082158000821580008DF570008CC
:10571C00FB681B68B968184600F0ACF9FB681B689D
:10572C009A69FB681B6842F008029A61FB681B6867
:10573C009A69FB681B6822F004029A61FB681B687B
:10574C009969BB681A69FB681B680A439A6162E035
:10575C00FB681B68B968184600F0F2F9FB681B6817
:10576C009A69FB681B6842F400629A61FB681B68CB
:10577C009A69FB681B6822F480629A61FB681B685B
:10578C009969BB681B691A02FB681B680A439A611A
:10579C0041E0FB681B68B968184600F03BFAFB68EF
:1057AC001B68DA69FB681B6842F00802DA61FB6867
:1057BC001B68DA69FB681B6822F00402DA61FB687B
:1057CC001B68D969BB681A69FB681B680A43DA61F4
:1057DC0021E0FB681B68B968184600F085FAFB6885
:1057EC001B68DA69FB681B6842F40062DA61FB68CB
:1057FC001B68DA69FB681B6822F48062DA61FB685B
:10580C001B68D969BB681B691A02FB681B680A43D1
:10581C00DA6100E000BFFB68002283F83C20002323
:10582C0018461037BD4680BD80B584B000AF786097
:10583C0039607B6893F83C30012B01D10223B3E033
:10584C007B68012283F83C207B68022283F83D2090
:10585C007B681B689B68FB60FB6823F07703FB602D
:10586C00FB6823F47F43FB607B681B68FA689A60D3
:10587C003B681B68B3F5005F3ED0B3F5005F00F2E8
:10588C008780B3F5805F00F08580B3F5805F7FD8AB
:10589C00702B1AD0702B7BD8602B50D0602B77D804
:1058AC00502B3CD0502B73D8402B58D0402B6FD85A
:1058BC00302B64D0302B6BD8202B60D0202B67D8AA
:1058CC00002B5CD0102B5AD062E07B6818683B68C8
:1058DC0099683B685A683B68DB6800F0CAFA7B68D9
:1058EC001B689B68FB60FB6843F07703FB607B687D
:1058FC001B68FA689A604EE07B6818683B68996888
:10590C003B685A683B68DB6800F0B3FA7B681B683D
:10591C009A687B681B6842F480429A603BE07B6823
:10592C0018683B6859683B68DB681A4600F02AFA2D
:10593C007B681B685021184600F081FA2BE07B68CD
:10594C0018683B6859683B68DB681A4600F048FAEF
:10595C007B681B686021184600F071FA1BE07B68BD
:10596C0018683B6859683B68DB681A4600F00AFA0D
:10597C007B681B684021184600F061FA0BE07B68DD
:10598C001A683B681B681946104600F058FA02E08A
:10599C0000BF00E000BF7B68012283F83D207B68DC
:1059AC00002283F83C20002318461037BD4680BDEA
:1059BC0080B485B000AF786039607B681B68FB6091
:1059CC007B68294A93420BD07B68B3F1804F07D098
:1059DC007B68264A934203D07B68254A934208D1C0
:1059EC00FB6823F07003FB603B685B68FA68134349
:1059FC00FB607B681C4A93420BD07B68B3F1804FF1
:105A0C0007D07B68194A934203D07B68184A9342AB
:105A1C0008D1FB6823F44073FB603B68DB68FA68D1
:105A2C001343FB60FB6823F080023B685B69134304
:105A3C00FB607B68FA681A603B689A687B68DA627C
:105A4C003B681A687B689A627B68074A934203D169
:105A5C003B681A697B681A637B6801225A6100BF34
:105A6C001437BD4680BC7047002C01400004004038
:105A7C000008004080B487B000AF786039607B6864
:105A8C001B6A23F001027B681A627B681B6A7B61CC
:105A9C007B685B683B617B689B69FB60FB6823F000
:105AAC007003FB60FB6823F00303FB603B681B681F
:105ABC00FA681343FB607B6923F002037B613B684C
:105ACC009B687A6913437B617B681C4A93420CD1B7
