:020000040800F2
:1000000000500020950D00083D0C0008430C00082E
:10001000490C00084F0C0008550C000800000000B7
:100020000000000000000000000000005B0C000861
:10003000670C000800000000730C00087F0C00082B
:10004000DD0D0008DD0D0008DD0D0008DD0D0008E8
:10005000DD0D0008DD0D0008DD0D0008DD0D0008D8
:10006000DD0D0008DD0D0008DD0D0008DD0D0008C8
:10007000DD0D0008DD0D0008DD0D0008DD0D0008B8
:10008000DD0D0008DD0D00088D0C0008DD0D0008F9
:10009000DD0D0008DD0D0008DD0D0008DD0D000898
:1000A000DD0D0008DD0D0008DD0D0008DD0D000888
:1000B000DD0D0008DD0D0008DD0D0008DD0D000878
:1000C000DD0D0008DD0D0008DD0D0008DD0D000868
:1000D000F90C0008DD0D0008DD0D0008DD0D00083D
:1000E0000D0D0008DD0D0008DD0D0008000000000A
:1000F0000000000000000000000000000000000000
:0C01000000000000000000005FF808F1A3
:10010C0010B5054C237833B9044B13B10448AFF345
:10011C0000800123237010BD780000200000000037
:10012C000C56000808B5034B1BB103490348AFF349
:10013C00008008BD000000007C0000200C56000868
:10014C00034613F8012B002AFBD1181A013870470B
:10015C0080B582B000AF0346FB804FF480510B4852
:10016C0001F0D8FE0346002B0BD1094B1968094B43
:10017C001A684FF48473084803F018F9074B0122EE
:10018C001A7000BF0837BD4680BD00BF000C01408F
:10019C00980000209C00002034020020A8010020C0
:1001AC0080B500AF044B00221A70034B1B78184625
:1001BC0000F004F800BF80BD9500002080B483B02F
:1001CC0000AF0346FB71FB79002B06D0084B094AA4
:1001DC001A60094B094A1A6005E0054B074A1A6078
:1001EC00054B044A1A6000BF0C37BD4680BC7047F3
:1001FC0098000020000000209C000020040000203B
:10020C0080B582B000AF78607B681B68124A93425D
:10021C001ED1124B1B78002B03D0104B00221A70EE
:10022C0005E00E4B01221A700D4B01221A700D4B7A
:10023C001B681B889AB20C4B1A800C4B1B681B88D2
:10024C009AB2094B1A80054B1B781846FFF7B6FF7C
:10025C0000BF0837BD4680BD003800409500002027
:10026C00940000209C000020A0000020980000209A
:10027C00F0B5ADF50F7D00AF00F0ACFD00F088F9E6
:10028C0000F000FB00F054FA00F0D2FA00F0DCF9B8
:10029C0000F018FA00F07EFA01221821A94801F0AA
:1002AC0050FEFFF77DFF002004F0DCFAA64803F0B7
:1002BC009BFCA64800F0F2FF6421A44800F0E8FE85
:1002CC00A34B1B78002B02D0A14B00221A701023D9
:1002DC000122A049A04803F0CAFF9E4B1B78302B8B
:1002EC0015D101220421974801F02BFE04F0EEF900
:1002FC009A4A07F50A7392E80300186004331970E0
:10030C0007F50A7164230422934803F01EFF914BF6
:10031C001B78312B16D1012204218A4801F011FEE1
:10032C008F4B01221A708F4A07F5087392E803006D
:10033C0018600433197007F5087164230422864889
:10034C0003F003FF834B1B78322B16D101220421BF
:10035C007C4801F0F6FD824B00221A70824A07F5A8
:10036C00067392E8030018600433197007F50671E0
:10037C0064230422784803F0E8FE764B1B78332B79
:10038C0026D1012204216F4801F0DBFD774B1B883D
:10039C0007F580700022002104F00AFC734B1A88C8
:1003AC0007F5807164236C4803F0CFFE704A07F5A3
:1003BC00047392E8030018600433198002330A0CAA
:1003CC001A7007F5047164230622634803F0BDFE1E
:1003DC00604B1B78342B70D101220421594801F059
:1003EC00B0FD07F50E73A3F50E76624B34461D4631
:1003FC000FCD0FC42B68237006F11103EF220021DF
:10040C00184604F07BFC07F50E73A3F59C745A4A4E
:10041C00234607CA03C31A800233120C1A7004F164
:10042C000B03F5220021184604F068FC0023C7F8E2
:10043C00343211E0D7F834323A46D018D7F8342297
:10044C000123002104F066F9012000F025FDD7F806
:10045C0034320133C7F83432D7F83432022BE9DDA9
:10046C000023C7F8303212E0D7F8303207F580722B
:10047C00D018D7F830220123012104F04BF90120C8
:10048C0000F00AFDD7F830320133C7F83032D7F814
:10049C003032FF2BE8DD394A07F5027392E803008E
:1004AC0018600433198002330A0C1A7007F50271B4
:1004BC0064230622284803F048FE264B1B78392B70
:1004CC0016D1012204211F4801F03BFD012004F04C
:1004DC00C9F92B4A07F5007392E80300186004333E
:1004EC00197007F50071642304221B4803F02DFEDC
:1004FC00184B00221A7000220421124801F021FD31
:10050C00174B1B78002B18D01E4B1B889BB2FF2B54
:10051C0013D91D4B1B889BB21946144B1B88002208
:10052C001A4804F0F7F8184B1B889BB201339AB2A7
:10053C00154B1A80134B00221A80012000F0ACFCE2
:10054C00BEE600BF000801408C020020AC01002078
:10055C009400002020040020D4020020245600081F
:10056C00180300202C5600083456000834040020D0
:10057C003C560008445600084457000844580008EC
:10058C004C5800081A0300201C03002020030020F4
:10059C0080B594B000AF07F128032822002118463B
:1005AC0004F0ACFB07F1140300221A605A609A6045
:1005BC00DA601A613B1D00221A605A609A60DA6098
:1005CC000123BB624FF48033FB6200233B630123A6
:1005DC00BB6302237B644FF48033BB644FF4E013A2
:1005EC00FB6407F12803184601F0DCFC0346002BE2
:1005FC0001D000F0A9F90F237B610223BB6100231A
:10060C00FB614FF480633B6200237B6207F11403B0
:10061C000221184601F048FF0346002B01D000F0E0
:10062C0093F902237B604FF40043FB603B1D18469B
:10063C0002F0D2F80346002B01D000F085F900BF80
:10064C005037BD4680BD000080B584B000AF3B1D67
:10065C0000221A605A609A60184B194A1A60174B9C
:10066C0000229A60154B00221A73144B00221A7543
:10067C00124B4FF40022DA61104B00225A600F4BE0
:10068C0001221A610D4800F02BFC0346002B01D00F
:10069C0000F05AF901237B600123BB600023FB604F
:1006AC003B1D1946054800F091FF0346002B01D075
:1006BC0000F04AF900BF1037BD4680BDAC010020E8
:1006CC000024014080B500AF174B184A1A60164B36
:1006DC004FF482725A60144B00229A60124B002223
:1006EC00DA60114B00221A610F4B00225A610E4B3B
:1006FC004FF400729A610C4B3822DA610A4B0022DB
:10070C001A62094B00225A62074B00229A62064B6E
:10071C000A22DA62044802F0D5F90346002B01D014
:10072C0000F012F900BF80BDDC0100200030014058
:10073C0080B500AF154B164A1A60144B00225A6054
:10074C00124B00229A60114B0022DA600F4B0022F0
:10075C001A610E4B00225A610C4B4FF400729A61D5
:10076C000A4B00221A62094B00225A62074B0022E4
:10077C009A62064B0A22DA62044802F0A3F9034695
:10078C00002B01D000F0E0F800BF80BD3402002047
:10079C000038004080B586B000AF07F10803002296
:1007AC001A605A609A60DA603B4600221A605A60FE
:1007BC001D4B1E4A1A601C4B64225A601A4B0022B5
:1007CC009A60194B4FF6FF72DA60174B00221A61D0
:1007DC00154B00229A61144803F0B6F90346002B1E
:1007EC0001D000F0B1F84FF48053BB6007F108035F
:1007FC0019460D4803F042FA0346002B01D000F0D5
:10080C00A3F830233B6000237B603B461946064827
:10081C0003F0F0FB0346002B01D000F095F800BF6D
:10082C001837BD4680BD00BF8C020020000400407C
:10083C0080B500AF114B124A1A60104B4FF4E132E5
:10084C005A600E4B00229A600C4B0022DA600B4B64
:10085C0000221A61094B0C225A61084B00229A6142
:10086C00064B0022DA61054803F022FC0346002BFC
:10087C0001D000F069F800BF80BD00BFD402002099
:10088C000038014080B588B000AF07F1100300229A
:10089C001A605A609A60DA60274B9B69264A43F0CB
:1008AC0020039361244B9B6903F02003FB60FB68DE
:1008BC00214B9B69204A43F0040393611E4B9B69B7
:1008CC0003F00403BB60BB681B4B9B691A4A43F0E3
:1008DC0008039361184B9B6903F008037B607B68EA
:1008EC0000221D21154801F02CFB1D233B61012327
:1008FC007B610023BB610223FB6107F110031946E6
:10090C000E4801F083F94FF480533B610C4B7B6133
:10091C000023BB6107F1100319460A4801F076F970
:10092C0000220021282001F0C4F8282001F0DDF875
:10093C0000BF2037BD4680BD0010024000080140BA
:10094C0000002110000C014080B400AF72B600BF53
:10095C00FEE7000080B485B000AF154B9B69144ACC
:10096C0043F001039361124B9B6903F00103BB60DD
:10097C00BB680F4BDB690E4A43F08053D3610C4BC1
:10098C00DB6903F080537B607B680A4B5B68FB6020
:10099C00FB6823F0E063FB60FB6843F00073FB60D3
:1009AC00044AFB68536000BF1437BD4680BC7047D7
:1009BC00001002400000014080B588B000AF7860A4
:1009CC0007F1100300221A605A609A60DA607B68A3
:1009DC001B68184A934229D1174B9B69164A43F45A
:1009EC0000739361144B9B6903F40073FB60FB6809
:1009FC00114B9B69104A43F0040393610E4B9B69A6
:100A0C0003F00403BB60BB6802233B6103237B61DF
:100A1C0007F110031946094801F0F8F800220021EB
:100A2C00122001F046F8122001F05FF800BF2037C9
:100A3C00BD4680BD0024014000100240000801406A
:100A4C0080B58AB000AF786007F1180300221A60F5
:100A5C005A609A60DA607B681B683B4A934230D1DB
:100A6C003A4B9B69394A43F480539361374B9B69EA
:100A7C0003F480537B617B69344B9B69334A43F0AD
:100A8C0004039361314B9B6903F004033B613B69A5
:100A9C00A023BB610223FB6103237B6207F11803D4
:100AAC0019462B4801F0B2F84023BB610023FB61CF
:100ABC0000233B6207F118031946254801F0A6F8FC
:100ACC003EE07B681B68234A934239D11F4BDB699C
:100ADC001E4A43F48043D3611C4BDB6903F480430F
:100AEC00FB60FB68194B9B69184A43F00803936140
:100AFC00164B9B6903F00803BB60BB684FF42043A3
:100B0C00BB610023FB6100233B6207F1180319460C
:100B1C00114801F07BF84FF48043BB610223FB6169
:100B2C0003237B6207F1180319460B4801F06EF89A
:100B3C0000220021242000F0BCFF242000F0D5FF6F
:100B4C0000BF2837BD4680BD003001400010024078
:100B5C000008014000380040000C014080B485B012
:100B6C0000AF78607B681B68094A93420BD1094B34
:100B7C00DB69084A43F00203D361064BDB6903F0DF
:100B8C000203FB60FB6800BF1437BD4680BC704796
:100B9C00000400400010024080B588B000AF7860BF
:100BAC0007F1100300221A605A609A60DA607B68C1
:100BBC001B681C4A934231D11B4B9B691A4A43F464
:100BCC0080439361184B9B6903F48043FB60FB6883
:100BDC00154B9B69144A43F004039361124B9B69B8
:100BEC0003F00403BB60BB684FF400733B6102234A
:100BFC007B610323FB6107F1100319460B4801F0DD
:100C0C0005F84FF480633B6100237B610023BB61DB
:100C1C0007F110031946054800F0F8FF00BF203714
:100C2C00BD4680BD00380140001002400008014064
:100C3C0080B400AFFEE780B400AFFEE780B400AF35
:100C4C00FEE780B400AFFEE780B400AFFEE780B4EF
:100C5C0000AF00BFBD4680BC704780B400AF00BF82
:100C6C00BD4680BC704780B400AF00BFBD4680BCA1
:100C7C00704780B500AF00F0F3F800BF80BD0000F6
:100C8C0080B582B000AF144800F0BEFB03469AB2A8
:100C9C00124B1A80124B1B78002B16D00F4B1B8853
:100CAC00FB80FB881B099BB2DBB2FB800D4B1B88C6
:100CBC009BB21A46FB88D9B20B4B9954094B1B8833
:100CCC009BB201339AB2074B1A80034800F0A8FB81
:100CDC0000BF0837BD4680BDAC0100202A040020AF
:100CEC00180300201A0300202003002080B500AF59
:100CFC00024802F0EFFB00BF80BD00BF34020020B1
:100D0C0080B500AF4FF4805001F034F900BF80BDC6
:100D1C0080B586B000AF7860144A154BD31A7B614E
:100D2C007B693B61134B1B68002B02D1114B124AA0
:100D3C001A60104B1A687B6813443A699A4207D2BE
:100D4C0003F0B2FF03460C221A604FF0FF3309E0A8
:100D5C00084B1B68FB60074B1A687B681344054AF9
:100D6C001360FB6818461837BD4680BD0050002044
:100D7C00000400002C0400209804002080B400AF74
:100D8C0000BFBD4680BC70470C480D490D4A00237E
:100D9C0002E0D458C4500433C4188C42F9D30A4A24
:100DAC000A4C002301E013600432A242FBD3FFF78C
:100DBC00E5FF03F07FFFFFF75BFA704700000020B0
:100DCC0078000020045C00087800002094040020C7
:100DDC00FEE7000080B500AF084B1B68074A43F0E4
:100DEC0010031360032000F059FE0F2000F008F8E8
:100DFC00FFF7B0FD0023184680BD00BF0020024065
:100E0C0080B582B000AF7860124B1A68124B1B7819
:100E1C0019464FF47A73B3FBF1F3B2FBF3F31846B4
:100E2C0000F071FE0346002B01D001230EE07B681D
:100E3C000F2B0AD8002279684FF0FF3000F039FEF2
:100E4C00064A7B681360002300E00123184608372C
:100E5C00BD4680BD08000020100000200C000020C2
:100E6C0080B400AF054B1B781A46054B1B68134426
:100E7C00034A136000BFBD4680BC704710000020C1
:100E8C003004002080B400AF024B1B681846BD46EE
:100E9C0080BC70473004002080B584B000AF78600F
:100EAC00FFF7F0FFB8607B68FB60FB68B3F1FF3FB6
:100EBC0005D00A4B1B781A46FB681344FB6000BF35
:100ECC00FFF7E0FF0246BB68D31AFA689A42F7D8DC
:100EDC0000BF00BF1037BD4680BD00BF1000002012
:100EEC0080B586B000AF78600023FB7500233B61B2
:100EFC000023BB600023FB607B68002B01D1012326
:100F0C00BEE07B689B68002B7B689B6A002B09D139
:100F1C007B680022DA627B68002283F824207868E0
:100F2C00FFF74AFD786800F0A3FC0346FB757B686D
:100F3C009B6A03F01003002B40F09980FB7D002B83
:100F4C0040F095807B689B6A23F4885323F002035E
:100F5C0043F002027B689A627B685A687B68DB69A3
:100F6C001A437B681B7B5B001343BA681343BB605B
:100F7C007B689B68B3F5807F03D07B689B68012BF3
:100F8C0002D14FF4807300E000233A6913433B61B4
:100F9C007B681B7D012B19D17B681B7B002B09D136
:100FAC007B689B69013B5A033B69134343F4006321
:100FBC003B610BE07B689B6A43F020027B689A6282
:100FCC007B68DB6A43F001027B68DA627B681B6832
:100FDC005B6823F469417B681B683A690A435A6071
:100FEC007B681B689A68284B13407A681268B9684A
:100FFC000B4393607B689B68B3F5807F03D07B6861
:10100C009B68012B04D17B681B69013B1B05FB60B2
:10101C007B681B68DB6A23F470017B681B68FA68C9
:10102C000A43DA627B681B689A68184B1340BA68EB
:10103C009A420BD17B680022DA627B689B6A23F0B0
:10104C00030343F001027B689A6218E07B689B6A99
:10105C0023F0120343F010027B689A627B68DB6A10
:10106C0043F001027B68DA620123FB7507E07B68C1
:10107C009B6A43F010027B689A620123FB75FB7D2F
:10108C0018461837BD4680BDFDF7E1FFFE0E1FFF69
:10109C0090B587B000AF7860396000237B61002386
:1010AC00FB6000233B61FFF7EDFE78617B681B68FA
:1010BC009B6803F48073002B0BD07B689B6A43F016
:1010CC0020027B689A627B68002283F8242001232B
:1010DC00D3E07B681B685B6803F48073002B31D111
:1010EC007B681B68DB6A03F47003002B2AD121E0B8
:1010FC003B68B3F1FF3F1DD03B68002B07D0FFF7D7
:10110C00C1FE02467B69D31A3A689A4212D27B68B6
:10111C001B681B6803F00203002B0BD17B689B6AD6
:10112C0043F004027B689A627B68002283F82420D7
:10113C000323A2E07B681B681B6803F00203002BEF
:10114C00D6D070E04F4B1C68022001F0FBFB03462D
:10115C00B4FBF3F27B681B6819694B4B0B40002BFB
:10116C0018D17B681B68D968484B0B40002B11D1F8
:10117C007B681B681969464B0B40002B08D17B68B8
:10118C001B68D968434B0B40002B01D1142320E082
:10119C0029231EE07B681B6819693D4B0B40002B13
:1011AC0006D17B681B68D9683A4B0B40002B0DD0DD
:1011BC007B681B681969384B0B40002B08D17B6886
:1011CC001B68D968344B0B40002B01D1542300E031
:1011DC00FC2302FB03F33B6121E03B68B3F1FF3FCF
:1011EC001AD03B68002B07D0FFF74CFE02467B69F8
:1011FC00D31A3A689A420FD2FB683A699A420BD9D1
:10120C007B689B6A43F004027B689A627B680022CD
:10121C0083F82420032330E0FB680133FB60FB6878
:10122C003A699A42D9D87B681B686FF012021A602F
:10123C007B689B6A43F400727B689A627B681B68CC
:10124C009B6803F46023B3F5602F15D17B681B7B7F
:10125C00002B11D17B689B6A23F480727B689A62A5
:10126C007B689B6A03F48053002B05D17B689B6AD7
:10127C0043F001027B689A62002318461C37BD4676
:10128C0090BD00BF080000202449922424499200FC
:10129C0092244912922449004992240080B584B0CA
:1012AC0000AF78600023FB737B6893F82430012B2C
:1012BC0001D10223A0E07B68012283F82420786806
:1012CC0000F07CFA0346FB73FB7B002B40F08F8015
:1012DC007B689B6A23F4706323F0010343F48072F0
:1012EC007B689A627B681B68454A934205D1454BE3
:1012FC005B6803F47023002B15D17B689B6A23F485
:10130C0080127B689A627B681B685B6803F480635D
:10131C00002B26D07B689B6A23F4405343F4805205
:10132C007B689A621DE07B689B6A43F480127B6841
:10133C009A627B681B68334A934204D07B681B68B3
:10134C002F4A93420DD12F4B5B6803F48063002B23
:10135C0007D07B689B6A23F4405343F480527B682C
:10136C009A627B689B6A03F48053002B06D07B68DF
:10137C00DB6A23F006027B68DA6202E07B680022FB
:10138C00DA627B68002283F824207B681B686FF08C
:10139C0002021A607B681B685A687B681B6842F003
:1013AC0020025A607B681B689B6803F46023B3F5CA
:1013BC00602F13D17B681B68114A934205D1114BE6
:1013CC005B6803F47023002B08D17B681B689A6858
:1013DC007B681B6842F4A0029A600CE07B681B6877
:1013EC009A687B681B6842F480129A6003E07B6801
:1013FC00002283F82420FB7B18461037BD4680BDA5
:10140C00002801400024014080B483B000AF786014
:10141C007B681B68DB6C18460C37BD4680BC70477C
:10142C0080B582B000AF78607B681B685B6803F0A6
:10143C002003202B40D17B681B681B6803F0020340
:10144C00022B39D17B689B6A03F01003002B05D16A
:10145C007B689B6A43F400727B689A627B681B68AA
:10146C009B6803F46023B3F5602F1DD17B681B7B55
:10147C00002B19D17B681B685A687B681B6822F0AB
:10148C0020025A607B689B6A23F480727B689A62A4
:10149C007B689B6A03F48053002B05D17B689B6AA5
:1014AC0043F001027B689A62786800F07CF87B68F4
:1014BC001B686FF012021A607B681B685B6803F094
:1014CC008003802B4FD17B681B681B6803F00403DF
:1014DC00042B48D17B689B6A03F01003002B05D1C9
:1014EC007B689B6A43F400527B689A627B681B683A
:1014FC009B6803F4E043B3F5E04F12D07B681B68A4
:10150C005B6803F48063002B25D17B681B689B68A8
:10151C0003F46023B3F5602F1DD17B681B7B002B7C
:10152C0019D17B681B685A687B681B6822F08002A3
:10153C005A607B689B6A23F480527B689A627B6852
:10154C009B6A03F48073002B05D17B689B6A43F084
:10155C0001027B689A62786800F0CBF97B681B68A3
:10156C006FF00C021A607B681B685B6803F0400329
:10157C00402B14D17B681B681B6803F00103012B03
:10158C000DD17B689B6A43F480327B689A627868E1
:10159C0000F012F87B681B686FF001021A6000BF44
:1015AC000837BD4680BD80B483B000AF786000BF03
:1015BC000C37BD4680BC704780B483B000AF7860F8
:1015CC0000BF0C37BD4680BC7047000080B485B0AE
:1015DC0000AF786039600023FB730023BB607B682D
:1015EC0093F82430012B01D10223DCE07B6801222B
:1015FC0083F824203B685B68062B1CD87B681B682F
:10160C00596B3B685A6813469B001344053B1F22D9
:10161C0002FA03F3DB4319403B6818683B685A68CD
:10162C0013469B001344053B00FA03F27B681B68CE
:10163C000A435A633CE03B685B680C2B1CD87B6804
:10164C001B68196B3B685A6813469B001344233B79
:10165C001F2202FA03F3DB4319403B6818683B680E
:10166C005A6813469B001344233B00FA03F27B6831
:10167C001B680A431A631BE07B681B68D96A3B68CA
:10168C005A6813469B001344413B1F2202FA03F392
:10169C00DB4319403B6818683B685A6813469B004B
:1016AC001344413B00FA03F27B681B680A43DA627D
:1016BC003B681B68092B1CD97B681B68D9683B6885
:1016CC001A6813465B0013441E3B072202FA03F30D
:1016DC00DB4319403B6898683B681A6813465B000B
:1016EC0013441E3B00FA03F27B681B680A43DA6062
:1016FC0019E07B681B6819693B681A6813465B0024
:10170C001344072202FA03F3DB4319403B68986841
:10171C003B681A6813465B00134400FA03F27B68BB
:10172C001B680A431A613B681B68102B03D03B688B
:10173C001B68112B32D17B681B681D4A934225D143
:10174C007B681B689B6803F40003002B26D17B6825
:10175C001B689A687B681B6842F400029A603B68BD
:10176C001B68102B1AD1134B1B68134AA2FB0323C3
:10177C009A0C13469B0013445B00BB6002E0BB68F1
:10178C00013BBB60BB68002BF9D107E07B689B6A0F
:10179C0043F020027B689A620123FB737B68002272
:1017AC0083F82420FB7B18461437BD4680BC704759
:1017BC00002401400800002083DE1B4380B584B068
:1017CC0000AF78600023FB600023BB607B681B6864
:1017DC009B6803F00103012B40D07B681B689A685F
:1017EC007B681B6842F001029A601F4B1B681F4A02
:1017FC00A2FB03239B0CBB6002E0BB68013BBB60FC
:10180C00BB68002BF9D1FFF73DFBF8601FE0FFF739
:10181C0039FB0246FB68D31A022B18D97B681B686C
:10182C009B6803F00103012B11D07B689B6A43F08A
:10183C0010027B689A627B68DB6A43F001027B686A
:10184C00DA627B68002283F82420012307E07B689E
:10185C001B689B6803F00103012BD8D100231846A9
:10186C001037BD4680BD00BF0800002083DE1B433F
:10187C0080B584B000AF78600023FB607B681B6888
:10188C009B6803F00103012B2ED17B681B689A68BF
:10189C007B681B6822F001029A60FFF7F3FAF8608C
:1018AC001BE0FFF7EFFA0246FB68D31A022B14D9A0
:1018BC007B681B689B6803F00103012B0DD17B68CF
:1018CC009B6A43F010027B689A627B68DB6A43F088
:1018DC0001027B68DA62012307E07B681B689B6866
:1018EC0003F00103012BDCD0002318461037BD4652
:1018FC0080BD80B483B000AF786000BF0C37BD46AC
:10190C0080BC704780B485B000AF78607B6803F012
:10191C000703FB600C4BDB68BB60BA684FF6FF0338
:10192C001340BB60FB681A02BB68134343F0BF63F0
:10193C0043F40033BB60044ABB68D36000BF143768
:10194C00BD4680BC704700BF00ED00E080B400AF26
:10195C00044BDB681B0A03F007031846BD4680BC2A
:10196C00704700BF00ED00E080B483B000AF0346C9
:10197C00FB7197F90730002B0BDBFB7903F01F028F
:10198C00064997F907305B09012000FA02F241F889
:10199C00232000BF0C37BD4680BC704700E100E03F
:1019AC0080B483B000AF03463960FB7197F9073000
:1019BC00002B0ADB3B68DAB20C4997F907301201AD
:1019CC00D2B20B4483F800230AE03B68DAB2084930
:1019DC00FB7903F00F03043B1201D2B20B441A76CD
:1019EC0000BF0C37BD4680BC704700BF00E100E073
:1019FC0000ED00E080B489B000AFF860B9607A60A7
:101A0C00FB6803F00703FB61FB69C3F10703042BBD
:101A1C0028BF0423BB61FB690433062B02D9FB6985
:101A2C00033B00E000237B614FF0FF32BB6902FAFD
:101A3C0003F3DA43BB681A407B699A404FF0FF31DD
:101A4C007B6901FA03F3D9437B680B4013431846B7
:101A5C002437BD4680BC704780B582B000AF78603B
:101A6C007B68013BB3F1807F01D301230FE00A4A6D
:101A7C007B68013B53600F214FF0FF30FFF790FF65
:101A8C00054B00229A60044B07221A60002318466B
:101A9C000837BD4680BD00BF10E000E080B582B0C5
:101AAC0000AF78607868FFF72DFF00BF0837BD46A0
:101ABC0080BD80B586B000AF0346B9607A60FB7319
:101ACC0000237B61FFF742FF78617A68B968786917
:101ADC00FFF790FF024697F90F3011461846FFF7B3
:101AEC005FFF00BF1837BD4680BD80B582B000AF28
:101AFC000346FB7197F907301846FFF735FF00BF17
:101B0C000837BD4680BD80B582B000AF786078687C
:101B1C00FFF7A2FF034618460837BD4680BD0000FC
:101B2C0080B584B000AF78600023FB737B6893F8BA
:101B3C002130022B05D07B6804229A630123FB73AE
:101B4C0051E07B681B681A687B681B6822F00E02E8
:101B5C001A607B681B681A687B681B6822F001029C
:101B6C001A607B681B68224A934229D07B681B68E9
:101B7C00204A934222D07B681B681F4A93421AD09A
:101B8C007B681B681D4A934212D07B681B681C4AF9
:101B9C0093420AD07B681B681A4A934202D14FF4D5
:101BAC0080130EE04FF080730BE04FF4803308E0AD
:101BBC004FF4805305E04FF4807302E0102300E0F3
:101BCC000123114A53607B68012283F821207B6832
:101BDC00002283F820207B685B6B002B03D07B6892
:101BEC005B6B78689847FB7B18461037BD4680BD09
:101BFC00080002401C000240300002404400024039
:101C0C00580002406C0002400000024080B48BB0CF
:101C1C0000AF7860396000237B6200233B6269E18E
:101C2C0001227B6A02FA03F3FB613B681B68FA69C9
:101C3C001340BB61BA69FB699A4240F058813B681A
:101C4C005B689A4A93425ED0984A934275D8984AF8
:101C5C00934258D0964A93426FD8964A934252D0A8
:101C6C00944A934269D8944A93424CD0924A9342F4
:101C7C0063D8924A934246D0904A93425DD8122B35
:101C8C002AD8122B59D801A252F823F0131D0008A0
:101C9C00ED1C0008FF1C0008411D0008471D000832
:101CAC00471D0008471D0008471D0008471D000878
:101CBC00471D0008471D0008471D0008471D000868
:101CCC00471D0008471D0008471D0008471D000858
:101CDC00F51C0008091D0008794A934213D02CE02A
:101CEC003B68DB683B6229E03B68DB6804333B62A2
:101CFC0024E03B68DB6808333B621FE03B68DB6831
:101D0C000C333B621AE03B689B68002B02D1042326
:101D1C003B6213E03B689B68012B05D108233B62B7
:101D2C007B68FA691A6109E008233B627B68FA69EF
:101D3C005A6103E000233B6200E000BFBB69FF2B4C
:101D4C0001D87B6801E07B6804337B61BB69FF2BA6
:101D5C0002D87B6A9B0002E07B6A083B9B003B61DC
:101D6C007B691A680F213B6901FA03F3DB431A40C4
:101D7C00396A3B6901FA03F31A437B691A603B68C1
:101D8C005B6803F08053002B00F0B1804D4B9B69D6
:101D9C004C4A43F0010393614A4B9B6903F00103E6
:101DAC00BB60BB68484A7B6A9B08023352F82330FD
:101DBC00FB607B6A03F003039B000F2202FA03F320
:101DCC00DB43FA681340FB607B68404A934213D0B4
:101DDC007B683F4A93420DD07B683E4A934207D0C2
:101DEC007B683D4A934201D1032306E0042304E0BF
:101DFC00022302E0012300E000237A6A02F00302CE
:101E0C0092009340FA681343FB602F497B6A9B084E
:101E1C000233FA6841F823203B685B6803F4803393
:101E2C00002B06D02D4B1A682C49BB6913430B6051
:101E3C0006E02A4B1A68BB69DB43284913400B6048
:101E4C003B685B6803F40033002B06D0234B5A68C5
:101E5C002249BB6913434B6006E0204B5A68BB69AF
:101E6C00DB431E4913404B603B685B6803F48013F3
:101E7C00002B06D0194B9A681849BB6913438B6029
:101E8C0006E0164B9A68BB69DB43144913408B6020
:101E9C003B685B6803F40013002B21D00F4BDA680E
:101EAC000E49BB691343CB6021E000BF0000321028
:101EBC000000311000002210000021100000121050
:101ECC000000111000100240000001400008014009
:101EDC00000C0140001001400014014000040140BE
:101EEC000B4BDA68BB69DB4309491340CB607B6A57
:101EFC0001337B623B681A687B6A22FA03F3002B7E
:101F0C007FF48EAE00BF00BF2C37BD4680BC70473F
:101F1C000004014080B485B000AF78600B467B8034
:101F2C007B689A687B881340002B02D00123FB73DB
:101F3C0001E00023FB73FB7B18461437BD4680BCC5
:101F4C00704780B483B000AF78600B467B8013463B
:101F5C007B707B78002B03D07A887B681A6103E056
:101F6C007B881A047B681A6100BF0C37BD4680BCA5
:101F7C007047000080B582B000AF0346FB80084B71
:101F8C005A69FB881340002B06D0054AFB88536125
:101F9C00FB881846FEF7DCF800BF0837BD4680BD4D
:101FAC000004014080B586B000AF78607B68002BE0
:101FBC0001D1012372E27B681B6803F00103002B43
:101FCC0000F08780924B5B6803F00C03042B0CD061
:101FDC008F4B5B6803F00C03082B12D18C4B5B68A6
:101FEC0003F48033B3F5803F0BD1894B1B6803F4AA
:101FFC000033002B6CD07B685B68002B68D101230D
:10200C004CE27B685B68B3F5803F06D1804B1B6864
:10201C007F4A43F4803313602EE07B685B68002BAF
:10202C000CD17B4B1B687A4A23F480331360784BBA
:10203C001B68774A23F4802313601DE07B685B6880
:10204C00B3F5A02F0CD1724B1B68714A43F480235B
:10205C0013606F4B1B686E4A43F4803313600BE0C4
:10206C006B4B1B686A4A23F480331360684B1B6804
:10207C00674A23F4802313607B685B68002B13D0C2
:10208C00FEF700FF386108E0FEF7FCFE02463B69F4
:10209C00D31A642B01D9032300E25D4B1B6803F4B4
:1020AC000033002BF0D014E0FEF7ECFE386108E0B2
:1020BC00FEF7E8FE02463B69D31A642B01D90323D1
:1020CC00ECE1534B1B6803F40033002BF0D100E020
:1020DC0000BF7B681B6803F00203002B63D04C4BE2
:1020EC005B6803F00C03002B0BD0494B5B6803F0CF
:1020FC000C03082B1CD1464B5B6803F48033002B7C
:10210C0016D1434B1B6803F00203002B05D07B68F0
:10211C001B69012B01D00123C0E13D4B1B6823F04F
:10212C00F8027B685B69DB00394913430B603AE0CA
:10213C007B681B69002B20D0364B01221A60FEF7FE
:10214C00A1FE386108E0FEF79DFE02463B69D31AFA
:10215C00022B01D90323A1E12D4B1B6803F00203D1
:10216C00002BF0D02A4B1B6823F0F8027B685B69CC
:10217C00DB00274913430B6015E0264B00221A6045
:10218C00FEF780FE386108E0FEF77CFE02463B69F4
:10219C00D31A022B01D9032380E11D4B1B6803F0DA
:1021AC000203002BF0D17B681B6803F00803002BA3
:1021BC003AD07B689B69002B19D0174B01221A600F
:1021CC00FEF760FE386108E0FEF75CFE02463B69F4
:1021DC00D31A022B01D9032360E10D4B5B6A03F088
:1021EC000203002BF0D0012000F0D8FA1CE00A4BBF
:1021FC0000221A60FEF746FE38610FE0FEF742FE41
:10220C0002463B69D31A022B08D9032346E100BFCF
:10221C00001002400000424280044242924B5B6A32
:10222C0003F00203002BE9D17B681B6803F0040365
:10223C00002B00F0A6800023FB758B4BDB6903F0B1
:10224C008053002B0DD1884BDB69874A43F08053B8
:10225C00D361854BDB6903F08053BB60BB68012302
:10226C00FB75824B1B6803F48073002B18D17F4BDA
:10227C001B687E4A43F480731360FEF703FE3861DB
:10228C0008E0FEF7FFFD02463B69D31A642B01D927
:10229C00032303E1754B1B6803F48073002BF0D010
:1022AC007B68DB68012B06D16F4B1B6A6E4A43F0CF
:1022BC00010313622DE07B68DB68002B0CD16A4BA9
:1022CC001B6A694A23F001031362674B1B6A664A57
:1022DC0023F0040313621CE07B68DB68052B0CD134
:1022EC00614B1B6A604A43F0040313625E4B1B6A2A
:1022FC005D4A43F0010313620BE05B4B1B6A5A4AC5
:10230C0023F001031362584B1B6A574A23F0040352
:10231C0013627B68DB68002B15D0FEF7B3FD3861C8
:10232C000AE0FEF7AFFD02463B69D31A41F2883250
:10233C00934201D90323B1E04B4B1B6A03F0020318
:10234C00002BEED014E0FEF79DFD38610AE0FEF79D
:10235C0099FD02463B69D31A41F28832934201D966
:10236C0003239BE0404B1B6A03F00203002BEED1CE
:10237C00FB7D012B05D13C4BDB693B4A23F08053A1
:10238C00D3617B68DB69002B00F08780364B5B6880
:10239C0003F00C03082B61D07B68DB69022B46D160
:1023AC00334B00221A60FEF76DFD386108E0FEF732
:1023BC0069FD02463B69D31A022B01D903236DE058
:1023CC00294B1B6803F00073002BF0D17B681B6A50
:1023DC00B3F5803F08D1244B5B6823F400327B6853
:1023EC009B68214913434B601F4B5B6823F47412A9
:1023FC007B68196A7B685B6A0B431B4913434B6010
:10240C001B4B01221A60FEF73DFD386108E0FEF718
:10241C0039FD02463B69D31A022B01D903233DE057
:10242C00114B1B6803F00073002BF0D035E0104B00
:10243C0000221A60FEF726FD386108E0FEF722FD47
:10244C0002463B69D31A022B01D9032326E0064B23
:10245C001B6803F00073002BF0D11EE07B68DB6976
:10246C00012B07D1012319E000100240007000403D
:10247C00600042420B4B5B68FB60FB6803F48032EC
:10248C007B681B6A9A4206D1FB6803F470127B6866
:10249C005B6A9A4201D0012300E0002318461837EA
:1024AC00BD4680BD0010024080B584B000AF78609E
:1024BC0039607B68002B01D10123D0E06A4B1B688B
:1024CC0003F007033A689A4210D9674B1B6823F054
:1024DC00070265493B6813430B60634B1B6803F0B1
:1024EC0007033A689A4201D00123B8E07B681B6865
:1024FC0003F00203002B20D07B681B6803F004035D
:10250C00002B05D0594B5B68584A43F4E063536089
:10251C007B681B6803F00803002B05D0534B5B68EA
:10252C00524A43F460535360504B5B6823F0F00203
:10253C007B689B684D4913434B607B681B6803F0B9
:10254C000103002B40D07B685B68012B07D1474B04
:10255C001B6803F40033002B15D101237FE07B684B
:10256C005B68022B07D1414B1B6803F00073002BF7
:10257C0009D1012373E03D4B1B6803F00203002BD0
:10258C0001D101236BE0394B5B6823F003027B68BC
:10259C005B68364913434B60FEF774FCF8600AE045
:1025AC00FEF770FC0246FB68D31A41F28832934264
:1025BC0001D9032353E02D4B5B6803F00C027B68BD
:1025CC005B689B009A42EBD1274B1B6803F0070317
:1025DC003A689A4210D2244B1B6823F00702224916
:1025EC003B6813430B60204B1B6803F007033A68EE
:1025FC009A4201D0012332E07B681B6803F004038C
:10260C00002B08D0194B5B6823F4E0627B68DB6815
:10261C00164913434B607B681B6803F00803002BBF
:10262C0009D0124B5B6823F460527B681B69DB009A
:10263C000E4913434B6000F021F802460B4B5B68CC
:10264C001B0903F00F030A49CB5C22FA03F3094A76
:10265C001360094B1B681846FEF7D2FB0023184683
:10266C001037BD4680BD00BF002002400010024064
:10267C00B05B0008080000200C00002090B48AB069
:10268C0000AF294B3C1D0FCB84E80F0040F2012317
:10269C003B800023FB610023BB6100237B62002392
:1026AC007B6100233B62214B5B68FB61FB6903F0A0
:1026BC000C03042B02D0082B03D02BE01C4B3B62E9
:1026CC002BE0FB699B0C03F00F0328333B4413F8FE
:1026DC00243C7B61FB6903F48033002B12D0134B39
:1026EC005B685B0C03F0010328333B4413F8283C74
:1026FC00BB617B690E4A03FB02F2BB69B2FBF3F3CD
:10270C007B6204E07B690B4A02FB03F37B627B6A0E
:10271C003B6202E0064B3B6200BF3B6A184628371F
:10272C00BD4690BC704700BF5458000800100240D2
:10273C0000127A0000093D0080B400AF024B1B6808
:10274C001846BD4680BC70470800002080B500AF1D
:10275C00FFF7F2FF0246054B5B681B0A03F0070309
:10276C000349CB5C22FA03F3184680BD00100240EB
:10277C00C05B000880B500AFFFF7DEFF0246054BDB
:10278C005B68DB0A03F007030349CB5C22FA03F313
:10279C00184680BD00100240C05B000880B485B0B4
:1027AC0000AF78600A4B1B680A4AA2FB03235B0A42
:1027BC007A6802FB03F3FB6000BFFB685A1EFA60E9
:1027CC00002BF9D100BF00BF1437BD4680BC704749
:1027DC0008000020D34D621080B586B000AF786041
:1027EC0000233B610023FB607B681B6803F0010343
:1027FC00002B7DD00023FB754F4BDB6903F080531E
:10280C00002B0DD14C4BDB694B4A43F08053D36109
:10281C00494BDB6903F08053BB60BB680123FB753C
:10282C00464B1B6803F48073002B18D1434B1B6879
:10283C00424A43F480731360FEF724FB386108E0CE
:10284C00FEF720FB02463B69D31A642B01D9032304
:10285C006DE03A4B1B6803F48073002BF0D0364BC1
:10286C001B6A03F44073FB60FB68002B2ED07B6863
:10287C005B6803F44073FA689A4227D02E4B1B6AAC
:10288C0023F44073FB602E4B01221A602C4B002268
:10289C001A60294AFB681362FB6803F00103002BE2
:1028AC0014D0FEF7EFFA38610AE0FEF7EBFA0246B5
:1028BC003B69D31A41F28832934201D9032336E0A3
:1028CC001D4B1B6A03F00203002BEED01A4B1B6A44
:1028DC0023F440727B685B68174913430B62FB7DE2
:1028EC00012B05D1144BDB69134A23F08053D361C0
:1028FC007B681B6803F00203002B08D00E4B5B684F
:10290C0023F440427B689B680B4913434B607B6804
:10291C001B6803F01003002B08D0074B5B6823F4F3
:10292C0080027B68DB68044913434B600023184624
:10293C001837BD4680BD00BF00100240007000403B
:10294C004004424290B58DB000AF7860584B07F10F
:10295C000C040FCB84E80F0040F201233B810023D1
:10296C007B620023FB6200233B620023FB6100239C
:10297C00BB627B68102B0AD07B68102B00F28E8018
:10298C007B68012B49D07B68022B79D086E0494BC0
:10299C005B68FB61474B1B6803F08073002B7FD097
:1029AC00FB699B0C03F00F0330333B4413F8243CBE
:1029BC003B62FB6903F48033002B17D03D4B5B6803
:1029CC005B0C03F0010330333B4413F8283C7B626F
:1029DC00FB6903F48033002B0DD0374A7B6AB2FBC2
:1029EC00F3F23B6A02FB03F3FB6204E03B6A334AFB
:1029FC0002FB03F3FB622F4B5B6803F48003B3F51C
:102A0C00800F02D1FB6ABB624AE0FB6A5B002C4A76
:102A1C00A2FB03235B08BB6242E0264B1B6AFB61F3
:102A2C00FB6903F44073B3F5807F08D1FB6903F0B5
:102A3C000203002B03D04FF40043BB621FE0FB6981
:102A4C0003F44073B3F5007F09D11A4B5B6A03F0B2
:102A5C000203002B03D049F64043BB620FE0FB6935
:102A6C0003F44073B3F5407F1CD1124B1B6803F485
:102A7C000033002B16D04FF22443BB6212E011E05E
:102A8C00FFF778FE02460B4B5B689B0B03F00303CE
:102A9C0001335B00B2FBF3F3BB6204E000BF02E066
:102AAC0000BF00E000BFBB6A18463437BD4690BD7E
:102ABC00645800080010024000127A0000093D0022
:102ACC00ABAAAAAA80B582B000AF78607B68002B55
:102ADC0001D1012376E07B685B6A002B08D17B680F
:102AEC005B68B3F5827F09D07B680022DA6105E070
:102AFC007B6800221A617B6800225A617B68002285
:102B0C009A627B6893F85130DBB2002B06D17B685C
:102B1C00002283F850207868FDF792FF7B68022230
:102B2C0083F851207B681B681A687B681B6822F04D
:102B3C0040021A607B685B6803F482727B689B6856
:102B4C0003F404431A437B68DB6803F400631A4301
:102B5C007B681B6903F002031A437B685B6903F013
:102B6C0001031A437B689B6903F400731A437B6867
:102B7C00DB6903F038031A437B681B6A03F080039C
:102B8C0042EA03017B689B6A03F400527B681B6872
:102B9C000A431A607B689B691A0C7B681B6802F0FD
:102BAC0004025A607B681B68DA697B681B6822F434
:102BBC000062DA617B6800225A657B68012283F827
:102BCC005120002318460837BD4680BD80B588B01B
:102BDC0000AFF860B9603B601346FB800023FB77C5
:102BEC00FB6893F85030012B01D1022326E1FB68DE
:102BFC00012283F85020FEF745F9B861FB88FB826F
:102C0C00FB6893F85130DBB2012B02D00223FB7727
:102C1C000BE1BB68002B02D0FB88002B02D10123F7
:102C2C00FB7702E1FB68032283F85120FB6800224A
:102C3C005A65FB68BA681A63FB68FA889A86FB685F
:102C4C00FA88DA86FB6800229A63FB6800229A876E
:102C5C00FB680022DA87FB6800225A64FB680022BA
:102C6C001A64FB689B68B3F5004F0FD1FB681B68B7
:102C7C001A68FB681B6822F040021A60FB681B682C
:102C8C001A68FB681B6842F480421A60FB681B6878
:102C9C001B6803F04003402B07D0FB681B681A68C5
:102CAC00FB681B6842F040021A60FB68DB68B3F5F6
:102CBC00006F4BD1FB685B68002B02D0FB8A012BA9
:102CCC003ED1FB681B6B1A88FB681B68DA60FB68DB
:102CDC001B6B9A1CFB681A63FB68DB8E9BB2013B77
:102CEC009AB2FB68DA862BE0FB681B689B6803F0E2
:102CFC000203022B12D1FB681B6B1A88FB681B6842
:102D0C00DA60FB681B6B9A1CFB681A63FB68DB8E32
:102D1C009BB2013B9AB2FB68DA8611E0FEF7B2F87F
:102D2C000246BB69D31A3A689A4203D83B68B3F19E
:102D3C00FF3F02D13B68002B02D10323FB7774E0E9
:102D4C00FB68DB8E9BB2002BCED14CE0FB685B6842
:102D5C00002B02D0FB8A012B40D1FB681A6BFB685D
:102D6C001B680C3312781A70FB681B6B5A1CFB68BF
:102D7C001A63FB68DB8E9BB2013B9AB2FB68DA8666
:102D8C002CE0FB681B689B6803F00203022B13D139
:102D9C00FB681A6BFB681B680C3312781A70FB68A3
:102DAC001B6B5A1CFB681A63FB68DB8E9BB2013BE6
:102DBC009AB2FB68DA8611E0FEF764F80246BB694A
:102DCC00D31A3A689A4203D83B68B3F1FF3F02D159
:102DDC003B68002B02D10323FB7726E0FB68DB8EDC
:102DEC009BB2002BCDD1BA693968F86800F01AFE95
:102DFC000346002B02D0FB6820225A65FB689B68B7
:102E0C00002B0AD100233B61FB681B68DB683B612C
:102E1C00FB681B689B683B613B69FB685B6D002B27
:102E2C0002D00123FB7700E000BFFB68012283F88E
:102E3C005120FB68002283F85020FB7F1846203776
:102E4C00BD4680BD80B588B002AFF860B9603B600C
:102E5C001346FB800023FB75FB685B68B3F5827F30
:102E6C0012D1FB689B68002B0ED1FB68042283F8FF
:102E7C005120FA883B6800931346BA68B968F86821
:102E8C0000F0F1F80346EAE0FB6893F85030012BB0
:102E9C0001D10223E3E0FB68012283F85020FDF707
:102EAC00F1FF3861FB6893F85130DBB2012B02D093
:102EBC000223FB75CAE0BB68002B02D0FB88002BF9
:102ECC0002D10123FB75C1E0FB68042283F8512079
:102EDC00FB6800225A65FB68BA689A63FB68FA883B
:102EEC009A87FB68FA88DA87FB6800221A63FB680A
:102EFC0000229A86FB680022DA86FB6800221A649C
:102F0C00FB6800225A64FB689B68B3F5004F0FD135
:102F1C00FB681B681A68FB681B6822F040021A6089
:102F2C00FB681B681A68FB681B6822F480421A60F5
:102F3C00FB681B681B6803F04003402B07D0FB6841
:102F4C001B681A68FB681B6842F040021A60FB6839
:102F5C00DB68002B62D12EE0FB681B689B6803F0DA
:102F6C000103012B15D1FB681B6803F10C02FB68F4
:102F7C009B6B1278D2B21A70FB689B6B5A1CFB6865
:102F8C009A63FB68DB8F9BB2013B9AB2FB68DA87D2
:102F9C0011E0FDF777FF02463B69D31A3A689A4273
:102FAC0003D83B68B3F1FF3F02D13B68002B02D141
:102FBC000323FB754AE0FB68DB8F9BB2002BCBD164
:102FCC0031E0FB681B689B6803F00103012B13D1F4
:102FDC00FB681B68DA68FB689B6B92B21A80FB6813
:102FEC009B6B9A1CFB689A63FB68DB8F9BB2013B63
:102FFC009AB2FB68DA8711E0FDF744FF02463B69A1
:10300C00D31A3A689A4203D83B68B3F1FF3F02D116
:10301C003B68002B02D10323FB7517E0FB68DB8FA9
:10302C009BB2002BCDD13A693968F86800F0A8FC46
:10303C000346002B02D0FB6820225A65FB685B6DAF
:10304C00002B02D00123FB7500E000BFFB680122BE
:10305C0083F85120FB68002283F85020FB7D184632
:10306C001837BD4680BD80B58CB000AFF860B96034
:10307C007A607B800123FB62002387F82B30FB688E
:10308C0093F85030012B01D102238AE1FB68012215
:10309C0083F85020FDF7F6FE7862FB6893F8513008
:1030AC0087F82330FB685B68FB617B887B8397F830
:1030BC002330012B0FD0FB69B3F5827F07D1FB685E
:1030CC009B68002B03D197F82330042B03D00223E9
:1030DC0087F82B305BE1BB68002B05D07B68002B9D
:1030EC0002D07B88002B03D1012387F82B304EE1D3
:1030FC00FB6893F85130DBB2042B03D0FB6805223C
:10310C0083F85120FB6800225A65FB687A689A6341
:10311C00FB687A88DA87FB687A889A87FB68BA68D2
:10312C001A63FB687A88DA86FB687A889A86FB6869
:10313C0000221A64FB6800225A64FB681B681B6837
:10314C0003F04003402B07D0FB681B681A68FB6830
:10315C001B6842F040021A60FB68DB68B3F5006F35
:10316C0078D1FB685B68002B02D07B8B012B66D17E
:10317C00FB681B6B1A88FB681B68DA60FB681B6BAF
:10318C009A1CFB681A63FB68DB8E9BB2013B9AB2FC
:10319C00FB68DA8653E0FB681B689B6803F002034C
:1031AC00022B1BD1FB68DB8E9BB2002B16D0FB6A6B
:1031BC00012B13D1FB681B6B1A88FB681B68DA6048
:1031CC00FB681B6B9A1CFB681A63FB68DB8E9BB25B
:1031DC00013B9AB2FB68DA860023FB62FB681B6832
:1031EC009B6803F00103012B19D1FB68DB8F9BB2A9
:1031FC00002B14D0FB681B68DA68FB689B6B92B2DF
:10320C001A80FB689B6B9A1CFB689A63FB68DB8FCC
:10321C009BB2013B9AB2FB68DA870123FB62FDF794
:10322C0031FE02467B6AD31ABA6B9A4207D8BB6B43
:10323C00B3F1FF3F03D0032387F82B30A7E0FB68E3
:10324C00DB8E9BB2002BA6D1FB68DB8F9BB2002BD5
:10325C00A1D17CE0FB685B68002B02D07B8B012B3F
:10326C006BD1FB681A6BFB681B680C3312781A70F5
:10327C00FB681B6B5A1CFB681A63FB68DB8E9BB2EA
:10328C00013B9AB2FB68DA8657E0FB681B689B68C7
:10329C0003F00203022B1CD1FB68DB8E9BB2002BCC
:1032AC0017D0FB6A012B14D1FB681A6BFB681B68E7
:1032BC000C3312781A70FB681B6B5A1CFB681A6370
:1032CC00FB68DB8E9BB2013B9AB2FB68DA8600236B
:1032DC00FB62FB681B689B6803F00103012B19D18F
:1032EC00FB68DB8F9BB2002B14D0FB681B68DA6881
:1032FC00FB689B6BD2B21A70FB689B6B5A1CFB6809
:10330C009A63FB68DB8F9BB2013B9AB2FB68DA874E
:10331C000123FB62FDF7B6FD02467B6AD31ABA6B3A
:10332C009A4203D8BB6BB3F1FF3F02D1BB6B002BAE
:10333C0003D1032387F82B3029E0FB68DB8E9BB28B
:10334C00002BA2D1FB68DB8F9BB2002B9DD17A6A3C
:10335C00B96BF86800F066FB0346002B06D001231E
:10336C0087F82B30FB6820225A6510E0FB689B68BD
:10337C00002B0BD100237B61FB681B68DB687B6136
:10338C00FB681B689B687B617B6900E000BFFB6886
:10339C00012283F85120FB68002283F8502097F813
:1033AC002B3018463037BD4680BD000080B487B046
:1033BC0000AFF860B9607A607B800023FB75FB6816
:1033CC0093F85030012B01D1022375E0FB680122E8
:1033DC0083F85020FB6893F85130BB75FB685B6831
:1033EC003B61BB7D012B0DD03B69B3F5827F06D1D0
:1033FC00FB689B68002B02D1BB7D042B02D00223FF
:10340C00FB7554E0BB68002B05D07B68002B02D009
:10341C007B88002B02D10123FB7548E0FB6893F8F5
:10342C005130DBB2042B03D0FB68052283F851200A
:10343C00FB6800225A65FB68BA681A63FB687A88D5
:10344C009A86FB687A88DA86FB687A689A63FB68E6
:10345C007A889A87FB687A88DA87FB68DB68002BA6
:10346C0006D0FB68174A1A64FB68174A5A6405E0D1
:10347C00FB68164A1A64FB68154A5A64FB681B6899
:10348C005A68FB681B6842F0E0025A60FB681B68D4
:10349C001B6803F04003402B08D0FB681B681A68BC
:1034AC00FB681B6842F040021A6000E000BFFB683A
:1034BC00002283F85020FB7D18461C37BD4680BC8B
:1034CC00704700BFBD3700081D380008F9360008EA
:1034DC005D37000880B588B000AF78607B681B68EA
:1034EC005B68FB617B681B689B68BB61BB699B0964
:1034FC0003F00103002B0FD1BB6903F00103002B78
:10350C000AD0FB699B0903F00103002B04D07B68F4
:10351C001B6C78689847BEE0BB695B0803F001033D
:10352C00002B0AD0FB69DB0903F00103002B04D04C
:10353C007B685B6C78689847ADE0BB695B0903F00E
:10354C000103002B06D1BB699B0903F00103002B7F
:10355C0000F0A180FB695B0903F00103002B00F074
:10356C009A80BB699B0903F00103002B23D07B6875
:10357C0093F85130DBB2032B11D07B685B6D43F0B9
:10358C0004027B685A6500237B617B681B68DB68DF
:10359C007B617B681B689B687B617B690BE000230C
:1035AC003B617B681B68DB683B617B681B689B68C5
:1035BC003B613B696FE0BB695B0903F00103002BC6
:1035CC0014D07B685B6D43F001027B685A65002365
:1035DC00FB607B681B689B68FB607B681B681A68D8
:1035EC007B681B6822F040021A60FB687B685B6D8D
:1035FC00002B4FD07B681B685A687B681B6822F0D5
:10360C00E0025A607B68012283F85120FB6903F0C9
:10361C000203002B04D1FB6903F00103002B34D00F
:10362C007B681B685A687B681B6822F003025A602F
:10363C007B68DB6C002B11D07B68DB6C174A5A6300
:10364C007B68DB6C1846FEF76BFA0346002B05D043
:10365C007B685B6D43F040027B685A657B689B6CB2
:10366C00002B16D07B689B6C0C4A5A637B689B6C56
:10367C001846FEF755FA0346002B0AD07B685B6DA3
:10368C0043F040027B685A6503E0786800F011F85B
:10369C0000E000BF00BF2037BD4680BDD13600081A
:1036AC0080B483B000AF786000BF0C37BD4680BCDF
:1036BC00704780B483B000AF786000BF0C37BD4654
:1036CC0080BC704780B584B000AF78607B685B6A63
:1036DC00FB60FB680022DA87FB680022DA86F86858
:1036EC00FFF7E7FF00BF1037BD4680BD80B582B045
:1036FC0000AF78607B681B6803F10C027B689B6BE6
:10370C001278D2B21A707B689B6B5A1C7B689A63D6
:10371C007B68DB8F9BB2013B9AB27B68DA877B6854
:10372C00DB8F9BB2002B0FD17B681B685A687B68C0
:10373C001B6822F060025A607B68DB8E9BB2002B08
:10374C0002D1786800F08CF900BF0837BD4680BD07
:10375C0080B582B000AF78607B681A6B7B681B68A1
:10376C000C3312781A707B681B6B5A1C7B681A63BB
:10377C007B68DB8E9BB2013B9AB27B68DA867B68F6
:10378C00DB8E9BB2002B0FD17B681B685A687B6861
:10379C001B6822F080025A607B68DB8F9BB2002B87
:1037AC0002D1786800F05CF900BF0837BD4680BDD7
:1037BC0080B582B000AF78607B681B68DA687B6884
:1037CC009B6B92B21A807B689B6B9A1C7B689A638A
:1037DC007B68DB8F9BB2013B9AB27B68DA877B6894
:1037EC00DB8F9BB2002B0FD17B681B685A687B6800
:1037FC001B6822F040025A607B68DB8E9BB2002B68
:10380C0002D1786800F02CF900BF0837BD4680BDA6
:10381C0080B582B000AF78607B681B6B1A887B68C0
:10382C001B68DA607B681B6B9A1C7B681A637B686D
:10383C00DB8E9BB2013B9AB27B68DA867B68DB8EAF
:10384C009BB2002B0FD17B681B685A687B681B6886
:10385C0022F080025A607B68DB8F9BB2002B02D176
:10386C00786800F0FDF800BF0837BD4680BD000049
:10387C0080B588B000AFF860B9603B601346FB714F
:10388C00FDF700FB0246BB6A9B1A3A681344FB61C6
:10389C00FDF7F8FAB861394B1B685B011B0DFA692F
:1038AC0002FB03F37B6154E03B68B3F1FF3F50D064
:1038BC00FDF7E8FA0246BB69D31AFA699A4202D9B3
:1038CC00FB69002B3DD1FB681B685A68FB681B68C1
:1038DC0022F0E0025A60FB685B68B3F5827F11D17D
:1038EC00FB689B68B3F5004F04D0FB689B68B3F58D
:1038FC00806F07D1FB681B681A68FB681B6822F095
:10390C0040021A60FB689B6AB3F5005F0FD1FB683D
:10391C001B681A68FB681B6822F400521A60FB686B
:10392C001B681A68FB681B6842F400521A60FB683B
:10393C00012283F85120FB68002283F850200323D6
:10394C0017E07B69002B01D10023FB617B69013BF4
:10395C007B61FB681B689A68BB681340BA689A4223
:10396C000CBF01230023DBB21A46FB799A429BD190
:10397C00002318462037BD4680BD00BF080000203C
:10398C0080B586B002AFF860B9607A60FB685B689E
:10399C00B3F5827F11D1FB689B68B3F5004F04D05F
:1039AC00FB689B68B3F5806F07D1FB681B681A68CE
:1039BC00FB681B6822F040021A60FB685B68B3F579
:1039CC00827F17D1FB689B68B3F5806F12D17B683F
:1039DC000093BB6800220121F868FFF749FF0346FA
:1039EC00002B1AD0FB685B6D43F02002FB685A6514
:1039FC00032313E07B680093BB6800228021F868E6
:103A0C00FFF736FF0346002B07D0FB685B6D43F0D6
:103A1C002002FB685A65032300E000231846103788
:103A2C00BD4680BD80B586B002AFF860B9607A60E3
:103A3C007B680093BB6800228021F868FFF718FFB1
:103A4C000346002B07D0FB685B6D43F02002FB683C
:103A5C005A65032300E0002318461037BD4680BD8D
:103A6C0080B586B000AF7860354B1B68354AA2FB39
:103A7C0003235B0A642202FB03F33B61FDF702FAAA
:103A8C0078617B681B685A687B681B6822F020028F
:103A9C005A603B69002B06D17B685B6D43F02002BA
:103AAC007B685A6509E03B69013B3B617B681B689D
:103ABC009B6803F00203002BEBD07A6964217868D1
:103ACC00FFF7B0FF0346002B05D07B685B6D43F01E
:103ADC0020027B685A657B689B68002B0AD1002307
:103AEC00FB607B681B68DB68FB607B681B689B6802
:103AFC00FB60FB687B685B6D002B15D17B6893F8D2
:103B0C005130DBB2042B07D17B68012283F85120A2
:103B1C007868FFF7C5FD0EE07B68012283F8512021
:103B2C007868FCF76DFB06E07B68012283F8512076
:103B3C007868FFF7BEFD00BF1837BD4680BD00BFDB
:103B4C0008000020F119760580B582B000AF7860CE
:103B5C007B68002B01D1012341E07B6893F83D3059
:103B6C00DBB2002B06D17B68002283F83C207868FE
:103B7C00FCF7F4FF7B68022283F83D207B681A680F
:103B8C007B6804331946104600F03CF97B6801222F
:103B9C0083F846207B68012283F83E207B68012253
:103BAC0083F83F207B68012283F840207B68012248
:103BBC0083F841207B68012283F842207B68012234
:103BCC0083F843207B68012283F844207B68012220
:103BDC0083F845207B68012283F83D20002318469A
:103BEC000837BD4680BD000080B485B000AF78605A
:103BFC007B6893F83D30DBB2012B01D0012332E01E
:103C0C007B68022283F83D207B681B68184A93422C
:103C1C000ED07B681B68B3F1804F09D07B681B68A2
:103C2C00144A934204D07B681B68134A934211D107
:103C3C007B681B689B6803F00703FB60FB68062B23
:103C4C0010D07B681B681A687B681B6842F0010205
:103C5C001A6007E07B681B681A687B681B6842F077
:103C6C0001021A60002318461437BD4680BC704709
:103C7C00002C0140000400400008004080B584B0D6
:103C8C0000AF786039607B6893F83C30012B01D130
:103C9C000223B3E07B68012283F83C207B6802227C
:103CAC0083F83D207B681B689B68FB60FB6823F0F6
:103CBC007703FB60FB6823F47F43FB607B681B6826
:103CCC00FA689A603B681B68B3F5005F3ED0B3F5A9
:103CDC00005F00F28780B3F5805F00F08580B3F55C
:103CEC00805F7FD8702B1AD0702B7BD8602B50D074
:103CFC00602B77D8502B3CD0502B73D8402B58D0FE
:103D0C00402B6FD8302B64D0302B6BD8202B60D04D
:103D1C00202B67D8002B5CD0102B5AD062E07B682C
:103D2C0018683B6899683B685A683B68DB6800F028
:103D3C0042F97B681B689B68FB60FB6843F0770368
:103D4C00FB607B681B68FA689A604EE07B681868B9
:103D5C003B6899683B685A683B68DB6800F02BF954
:103D6C007B681B689A687B681B6842F480429A6087
:103D7C003BE07B6818683B6859683B68DB681A460F
:103D8C0000F0A2F87B681B685021184600F0F9F887
:103D9C002BE07B6818683B6859683B68DB681A46FF
:103DAC0000F0C0F87B681B686021184600F0E9F849
:103DBC001BE07B6818683B6859683B68DB681A46EF
:103DCC0000F082F87B681B684021184600F0D9F897
:103DDC000BE07B681A683B681B681946104600F0BC
:103DEC00D0F802E000BF00E000BF7B68012283F83E
:103DFC003D207B68002283F83C20002318461037B6
:103E0C00BD4680BD80B485B000AF786039607B68FA
:103E1C001B68FB607B68294A93420BD07B68B3F12B
:103E2C00804F07D07B68264A934203D07B68254A93
:103E3C00934208D1FB6823F07003FB603B685B681E
:103E4C00FA681343FB607B681C4A93420BD07B6877
:103E5C00B3F1804F07D07B68194A934203D07B683B
:103E6C00184A934208D1FB6823F44073FB603B680B
:103E7C00DB68FA681343FB60FB6823F080023B6845
:103E8C005B691343FB607B68FA681A603B689A684D
:103E9C007B68DA623B681A687B689A627B68074ABF
:103EAC00934203D13B681A697B681A637B680122D1
:103EBC005A6100BF1437BD4680BC7047002C0140CE
:103ECC00000400400008004080B487B000AFF860E8
:103EDC00B9607A60FB681B6A7B61FB681B6A23F024
:103EEC000102FB681A62FB689B693B613B6923F02A
:103EFC00F0033B617B681B013A6913433B617B69AF
:103F0C0023F00A037B617A69BB6813437B61FB680E
:103F1C003A699A61FB687A691A6200BF1C37BD4620
:103F2C0080BC704780B487B000AFF860B9607A602D
:103F3C00FB681B6A23F01002FB681A62FB689B6922
:103F4C007B61FB681B6A3B617B6923F470437B617B
:103F5C007B681B037A6913437B613B6923F0A003E5
:103F6C003B61BB681B013A6913433B61FB687A698F
:103F7C009A61FB683A691A6200BF1C37BD4680BC67
:103F8C00704780B485B000AF786039607B689B68FF
:103F9C00FB60FB6823F07003FB603A68FB6813431B
:103FAC0043F00703FB607B68FA689A6000BF143724
:103FBC00BD4680BC704780B487B000AFF860B96074
:103FCC007A603B60FB689B687B617B6923F47F4371
:103FDC007B613B681A027B681A43BB6813437A699E
:103FEC0013437B61FB687A699A6000BF1C37BD463E
:103FFC0080BC704780B485B000AF786039607B6856
:10400C0093F83C30012B01D1022346E07B6801225E
:10401C0083F83C207B68022283F83D207B681B6878
:10402C005B68FB607B681B689B68BB60FB6823F06C
:10403C007003FB603B681B68FA681343FB607B688A
:10404C001B68FA685A607B681B68164A93420ED04C
:10405C007B681B68B3F1804F09D07B681B68124AE0
:10406C00934204D07B681B68104A93420CD1BB6806
:10407C0023F08003BB603B685B68BA681343BB608A
:10408C007B681B68BA689A607B68012283F83D20C4
:10409C007B68002283F83C20002318461437BD4669
:1040AC0080BC7047002C0140000400400008004018
:1040BC0080B582B000AF78607B68002B01D1012302
:1040CC003FE07B6893F83D30DBB2002B06D17B6878
:1040DC00002283F83C207868FCF75EFD7B68242284
:1040EC0083F83D207B681B68DA687B681B6822F4C8
:1040FC000052DA60786800F0A7F97B681B681A69CF
:10410C007B681B6822F490421A617B681B685A69B1
:10411C007B681B6822F02A025A617B681B68DA688C
:10412C007B681B6842F40052DA607B6800221A64D8
:10413C007B68202283F83D207B68202283F83E2078
:10414C00002318460837BD4680BD80B58AB002AF43
:10415C00F860B9603B601346FB8000237B61FB6811
:10416C0093F83D30DBB2202B7CD1BB68002B02D006
:10417C00FB88002B01D1012375E0FB6893F83C30E0
:10418C00012B01D102236EE0FB68012283F83C2055
:10419C00FB6800221A64FB68212283F83D20FCF79F
:1041AC0071FE7861FB68FA889A84FB68FA88DA8475
:1041BC00FB689B68B3F5805F08D1FB681B69002B1B
:1041CC0004D10023FB61BB68BB6103E0BB68FB61EE
:1041DC000023BB61FB68002283F83C202AE03B688B
:1041EC0000937B6900228021F86800F0E2F8034616
:1041FC00002B01D0032336E0FB69002B0BD1BB69EC
:10420C001B881A46FB681B68C2F308025A60BB691C
:10421C000233BB6107E0FB691A78FB681B685A60C4
:10422C00FB690133FB61FB68DB8C9BB2013B9AB2EF
:10423C00FB68DA84FB68DB8C9BB2002BCFD13B682C
:10424C0000937B6900224021F86800F0B2F8034625
:10425C00002B01D0032306E0FB68202283F83D20CD
:10426C00002300E0022318462037BD4680BD80B5F0
:10427C008AB002AFF860B9603B601346FB80002344
:10428C007B61FB6893F83E30DBB2202B40F08C80D6
:10429C00BB68002B02D0FB88002B01D1012384E0EA
:1042AC00FB6893F83C30012B01D102237DE0FB68C5
:1042BC00012283F83C20FB6800221A64FB6822224E
:1042CC0083F83E20FB6800221A63FCF7DBFD786163
:1042DC00FB68FA889A85FB68FA88DA85FB689B6824
:1042EC00B3F5805F08D1FB681B69002B04D1002358
:1042FC00FB61BB68BB6103E0BB68FB610023BB6176
:10430C00FB68002283F83C2043E03B6800937B6908
:10431C0000222021F86800F04CF80346002B01D055
:10432C00032342E0FB69002B0CD1FB681B685B6824
:10433C009BB2C3F308039AB2BB691A80BB69023300
:10434C00BB611FE0FB689B68B3F5805F07D0FB681F
:10435C009B68002B0AD1FB681B69002B06D1FB68FC
:10436C001B685B68DAB2FB691A7008E0FB681B68B3
:10437C005B68DBB203F07F03DAB2FB691A70FB698E
:10438C000133FB61FB68DB8D9BB2013B9AB2FB688E
:10439C00DA85FB68DB8D9BB2002BB6D1FB68202243
:1043AC0083F83E20002300E0022318462037BD4648
:1043BC0080BD80B584B000AFF860B9603B60134637
:1043CC00FB712CE0BB69B3F1FF3F28D0BB69002B1C
:1043DC0007D0FCF757FD02463B68D31ABA699A42DC
:1043EC001DD2FB681B68DA68FB681B6822F4D0726C
:1043FC00DA60FB681B685A69FB681B6822F00102D3
:10440C005A61FB68202283F83D20FB68202283F848
:10441C003E20FB68002283F83C2003230FE0FB685E
:10442C001B681A68BB681340BA689A420CBF012318
:10443C000023DBB21A46FB799A42C3D000231846FC
:10444C001037BD4680BD000080B584B000AF7860E9
:10445C007B681B681B6923F440517B68DA687B68B6
:10446C001B680A431A617B689A687B681B691A434C
:10447C007B685B691343BB607B681B68DB6823F458
:10448C00B05323F00C037A681268B9680B43D360FD
:10449C007B681B685B6923F440717B689A697B6855
:1044AC001B680A435A617B681B682C4A934203D1F0
:1044BC00FEF760F9F86002E0FEF748F9F860FA6878
:1044CC0013469B0013449A001A447B685B689B005C
:1044DC00B2FBF3F3224AA2FB03235B091901FA682E
:1044EC0013469B0013449A001A447B685B689B003C
:1044FC00B2FBF3F21A4BA3FB02035B09642000FB33
:10450C0003F3D31A1B013233154AA2FB03235B09B5
:10451C0003F0F0031944FA6813469B0013449A0005
:10452C001A447B685B689B00B2FBF3F20C4BA3FB59
:10453C0002035B09642000FB03F3D31A1B01323323
:10454C00074AA2FB03235B0903F00F027B681B687D
:10455C000A449A6000BF1037BD4680BD0038014048
:10456C001F85EB5180B582B000AF78600B467B8025
:10457C007A8841F2883379680348FEF727FB00BF3D
:10458C000837BD4680BD00BFDC01002080B582B07D
:10459C0000AF78600B467B807A8841F2883379686B
:1045AC000348FEF74FFC00BF0837BD4680BD00BF77
:1045BC00DC01002080B500AF002210210948FDF776
:1045CC00C0FC094B66221A70074B99225A700221C3
:1045DC000548FFF7C7FF012210210248FDF7B1FC87
:1045EC0000BF80BD000801407804002080B500AFFA
:1045FC00002210210848FDF7A4FC084B06221A7073
:10460C0001210648FFF7AEFF012210210248FDF7F9
:10461C0098FC00BF80BD00BF00080140780400205A
:10462C0080B500AF002210210848FDF78AFC084B2A
:10463C0004221A7001210648FFF794FF0122102171
:10464C000248FDF77EFC00BF80BD00BF00080140A2
:10465C007804002080B483B000AF0346FB7100BF28
:10466C000C37BD4680BC704780B500AF0120FCF70D
:10467C0013FC002210211248FDF763FC114B05229C
:10468C001A7001210F48FFF76DFF01210D48FFF74C
:10469C007DFF0C4B1A780C4B83F820200120FCF783
:1046AC00FBFB094B93F8203003F00103002BECD1FA
:1046BC00012210210248FDF744FC00BF80BD00BF61
:1046CC0000080140780400203404002080B500AFBD
:1046DC00FFF7CAFFFFF78AFF002210210B48FDF7F6
:1046EC0030FC0B4BC7221A7001210948FFF73AFF27
:1046FC00012210210548FDF724FCFFF7B5FFFFF759
:10470C008FFF0F20FFF7A6FF00BF80BD0008014000
:10471C007804002080B584B000AFF860B9607A608E
:10472C003B60394B1B881A463B68934202D9364B87
:10473C001B883B607A683B681344334A1288934267
:10474C0005D9314B1B881A467B68D31A3B602E4B1C
:10475C001B881A46BB6802FB03F37A681344BB60E0
:10476C00FFF782FF0020FFF775FFFFF73FFF0022E6
:10477C0010212648FDF7E5FB254B02221A70224B2F
:10478C00DB7F002B17D0BB681B0EDAB2204B5A70A4
:10479C00BB681B0CDAB21E4B9A70BB681B0ADAB2F0
:1047AC001B4BDA70BB68DAB2194B1A710521184829
:1047BC00FFF7D8FE11E0BB681B0CDAB2144B5A7031
:1047CC00BB681B0ADAB2124B9A70BB68DAB2104B98
:1047DC00DA7004210E48FFF7C5FE3B689BB2194600
:1047EC00F868FFF7BFFE012210210848FDF7A9FB6E
:1047FC00FFF73AFFFFF714FF0F20FFF72BFF00BF67
:10480C001037BD4680BD00BF3404002000080140B5
:10481C007804002080B582B000AF104B9F221A7034
:10482C00002210210E48FDF78CFB01210B48FFF7ED
:10483C0099FE3B1D03211846FFF7A8FE012210210B
:10484C000748FDF77EFB3B791A047B791B02134367
:10485C00BA79134318460837BD4680BD780400204A
:10486C000008014080B584B000AF0346FB71FFF730
:10487C00D1FFF8606420FCF70FFBFFF79BFE642070
:10488C00FCF70AFBFB79002B16D04FF48053022265
:10489C0050495148FFF759FCFA685049504800F00C
:1048AC0035FA4F48FBF74CFC03469AB24FF4805351
:1048BC004B494948FFF749FCFB689BB2FB60494BED
:1048CC000022DA77FB68A3F58043113B092B70D8E3
:1048DC0001A252F823F000BFAF4900089F4900081D
:1048EC008F4900087F4900086F4900085F4900089C
:1048FC004F4900083D490008254900080D490008AA
:10490C00384B0122DA77374B4FF480625A613649C3
:10491C00334800F0FBF97DE0324B0122DA77314B62
:10492C004FF400725A6131492D4800F0EFF971E0F3
:10493C002C4B4FF480725A612D49294800F0E6F94E
:10494C0068E0284B80225A612A49254800F0DEF99C
:10495C0060E0244B40225A612749214800F0D6F9E7
:10496C0058E0204B20225A6124491D4800F0CEF912
:10497C0050E01C4B10225A612149194800F0C6F92D
:10498C0048E0184B08225A611E49154800F0BEF940
:10499C0040E0144B04225A611B49114800F0B6F94F
:1049AC0038E0104B02225A6118490D4800F0AEF95C
:1049BC0030E017490A4800F0A9F90948FBF7C0FB99
:1049CC0003469AB24FF4805305490348FFF7BDFBE9
:1049DC00D6E000BF185A0008D40200201C5A000868
:1049EC005804002034040020285A0008405A0008BB
:1049FC00585A0008705A0008885A0008A05A000833
:104A0C00B85A0008D05A0008E85A0008005B0008A1
:104A1C00185B0008FB79002B0AD05B48FBF790FB76
:104A2C0003469AB24FF4805357495848FFF78DFB11
:104A3C00574B4FF480721A80554B4FF480529A604A
:104A4C00534B5B691B01524AD360514BDB68504A94
:104A5C00926802FB03F34E4A1288B3FBF2F34C4A02
:104A6C0053604B4B9B681B01494A1361484BDB68F5
:104A7C00474A926802FB03F39B0A454A9361FB7910
:104A8C00002B7DD0424B1B881A4642493E4800F011
:104A9C003DF93D48FBF754FB03469AB24FF4805363
:104AAC0039493A48FFF751FB394B5B681A463A498A
:104ABC00354800F02BF93448FBF742FB03469AB219
:104ACC004FF4805330493148FFF73FFB304B9B6824
:104ADC001A4632492C4800F019F92B48FBF730FBE9
:104AEC0003469AB24FF4805327492848FFF72DFB11
:104AFC00274BDB681A462A49234800F007F922485D
:104B0C00FBF71EFB03469AB24FF480531E491F4815
:104B1C00FFF71BFB1E4B1B691A4622491A4800F073
:104B2C00F5F81948FBF70CFB03469AB24FF4805387
:104B3C0015491648FFF709FB154B5B691A461A49CC
:104B4C00114800F0E3F81048FBF7FAFA03469AB262
:104B5C004FF480530C490D48FFF7F7FA0C4B9B6947
:104B6C001A461249084800F0D1F80748FBF7E8FA52
:104B7C0003469AB24FF4805303490448FFF7E5FA11
:104B8C001037BD4680BD00BF58040020D402002061
:104B9C00340400202C5B0008445B0008585B0008C0
:104BAC00C4590008705B0008885B00089C5B000817
:104BBC0080B584B000AFF860B9607A603B60374B69
:104BCC001B881A463B68934202D9344B1B883B60C6
:104BDC007A683B681344314A1288934205D92F4BAB
:104BEC001B881A467B68D31A3B602C4B1B881A46D1
:104BFC00BB6802FB03F37A681344BB60284B0B229F
:104C0C001A70264BDB7F002B1FD0BB681B0EDAB251
:104C1C00234B5A70BB681B0CDAB2214B9A70BB68E1
:104C2C001B0ADAB21E4BDA70BB68DAB21C4B1A7173
:104C3C001B4B00225A71002210211A48FDF781F9F2
:104C4C0006211748FFF78EFC19E0BB681B0CDAB283
:104C5C00134B5A70BB681B0ADAB2114B9A70BB68C3
:104C6C00DAB20F4BDA700E4B00221A7100221021AF
:104C7C000C48FDF766F905210948FFF773FC3B6802
:104C8C009BB21946F868FFF781FC012210210548F8
:104C9C00FDF757F900BF1037BD4680BD3404002026
:104CAC007804002000080140014B1868704700BFD1
:104CBC001400002070B500260C4D0D4C641BA41084
:104CCC00A64209D100F09CFC00260A4D0A4C641B3C
:104CDC00A410A64205D170BD55F8043B9847013687
:104CEC00EEE755F8043B98470136F2E7FC5B000809
:104CFC00FC5B0008FC5B0008005C000803460244F7
:104D0C00934200D1704703F8011BF9E70EB46FF022
:104D1C00004100B59CB01DAB029006900791049128
:104D2C000848094953F8042B0591006802A901931E
:104D3C0000F068F80022029B1A701CB05DF804EBBE
:104D4C0003B07047140000200802FFFF2DE9F04764
:104D5C008E6882469E420C4690461F4638D88A89F9
:104D6C0012F4906F32D0256809690133A5EB010963
:104D7C0065694B4405EB450505EBD5756D109D42FA
:104D8C0038BF1D46530531D5294600F06FFB06464A
:104D9C0050B90C234FF0FF30CAF80030A38943F010
:104DAC004003A381BDE8F0874A46216900F0CEFAA2
:104DBC00A38923F4906343F08003A38126614E44BE
:104DCC0026603E466561A5EB0905A560BE4200D98B
:104DDC003E4632464146206800F0C6FAA3680020E1
:104DEC009B1BA360236833442360DBE72A4600F057
:104DFC00B1FB06460028E1D15046216900F0CEFAFD
:104E0C00C7E700002DE9F04F98468B8907461B0633
:104E1C000D4614469DB00ED50B6963B9402100F0C8
:104E2C0025FB2860286120B90C233B604FF0FF3034
:104E3C00D1E040236B610023099320238DF82930A6
:104E4C0030234FF00109CDF80C80DFF8A4818DF8E8
:104E5C002A3023469A4613F8012B0AB1252AF9D198
:104E6C00BAEB040B0BD05B46224629463846FFF7BB
:104E7C006DFF013000F0AA80099A5A4409929AF801
:104E8C000030002B00F0A28000234FF0FF32CDE960
:104E9C0005230AF1010A049307938DF853301A93F2
:104EAC005446052214F8011B514800F041FA049AAB
:104EBC00D8B9D00644BF20238DF85330110744BF16
:104ECC002B238DF853309AF800302A2B15D05446EA
:104EDC0000204FF00A0C079A214611F8013B303B99
:104EEC00092B4ED9B0B1079214E0A0EB080309FAD4
:104EFC0003F31343A2460493D2E7039B191D1B68CB
:104F0C000391002BBBBF5B4242F002020793079355
:104F1C00B8BF049223782E2B0CD163782A2B35D171
:104F2C00039B02341A1D1B680392002BB8BF4FF071
:104F3C00FF330593DFF8BCA003225046217800F024
:104F4C00F7F940B14023A0EB0A0003FA00F0049BF0
:104F5C0001340343049314F8011B062226488DF8F0
:104F6C00281000F0E5F9002838D0244B1BBB039B1C
:104F7C00073323F0070308330393099B3344099346
:104F8C0067E70C4601200CFB0232A5E700234FF02B
:104F9C000A0C194601340593204610F8012B303ABF
:104FAC00092A03D9002BC5D00591C3E70446012378
:104FBC000CFB0121F0E703AB00932A463846104B5B
:104FCC0004A9AFF30080421C0646D6D1AB895B0620
:104FDC003FF52CAF09981DB0BDE8F08F03AB0093E3
:104FEC002A463846064B04A900F07CF8EBE700BFD4
:104FFC00C85B0008CE5B0008D25B00080000000014
:10500C00594D00082DE9F047164699468A680B69F8
:10501C0007469342B8BF1346336091F843200C46C1
:10502C00DDF820800AB1013333602368990642BF52
:10503C00336802333360256815F0060506D104F198
:10504C00190AE36832689B1AAB4228DC94F84320B7
:10505C00131E226818BF012392062DD449463846E8
:10506C0004F14302C047013020D02368E56803F007
:10507C000603042B18BF002532684FF00006A36806
:10508C0008BFAD1A226908BF25EAE5759342C4BF73
:10509C009B1AED181A34B5421AD1002008E00123EE
:1050AC00524649463846C047013003D14FF0FF30D5
:1050BC00BDE8F0870135C4E73020E11881F84300E2
:1050CC005A1C94F845102244023382F84310C5E769
:1050DC000123224649463846C0470130E6D0013606
:1050EC00D9E700002DE9FF470F7E9146782F8046C7
:1050FC000C469A460C9D01F1430207D8622F0AD840
:10510C00002F00F0D980582F00F0A48004F1420544
:10511C0084F842703AE0A7F16303152BF6D801A18D
:10512C0051F823F0895100089D51000819510008CD
:10513C001951000819510008195100089D51000817
:10514C00195100081951000819510008195100088B
:10515C00AB520008CD5100088D52000819510008BF
:10516C0019510008CD52000819510008CD51000802
:10517C001951000819510008955200082B681A1D86
:10518C001B682A6004F1420584F842300123A4E034
:10519C0020682968060601F104030AD50E682B6005
:1051AC00002E03DA2D23764284F843300A235E481E
:1051BC0019E00E6810F0400F2B6018BF36B2EFE705
:1051CC002B682068191D2960010601D51E6802E0B4
:1051DC004606FBD51E886F2F0CBF08230A235248A6
:1051EC00002184F843106568002DA8BF2168A560D4
:1051FC00A4BF21F0040121600EB9002D4DD015463D
:10520C00B6FBF3F103FB1167C75D05F8017D37466B
:10521C00BB420E46F4D9082B0BD12368DE0708D508
:10522C00236961689942DEBF302305F8013C05F122
:10523C00FF35521B22614B4621464046CDF800A05B
:10524C0003AAFFF7DFFE01304CD14FF0FF3004B062
:10525C00BDE8F087344881F845702968236851F817
:10526C00046B29601D0614D5DF0744BF43F02003EF
:10527C0023601EB9236823F0200323601023AFE7BB
:10528C00236843F0200323607823284884F84530B2
:10529C00E3E7590648BFB6B2E6E71546BBE72B680D
:1052AC002668181D6169286035061B6801D51960D0
:1052BC0002E07006FBD51980002315462361BAE77E
:1052CC002B6800211A1D2A601D686268284600F0B0
:1052DC002FF808B1401B606063682361002384F8D9
:1052EC004330A8E72A46494640462369D047013057
:1052FC00ABD023689B0713D4E068039B9842B8BFDC
:10530C001846A4E70123324649464046D0470130AF
:10531C009BD00135E36803995B1AAB42F2DCEBE7F7
:10532C00002504F11906F5E7D95B0008EA5B0008D3
:10533C00034610B5C9B202449342184601D100206D
:10534C0003E0047801338C42F6D110BD0A4491423B
:10535C0000F1FF3300D1704710B511F8014B9142A9
:10536C0003F8014FF9D110BD884210B501EB0204CE
:10537C0002D98442234607D8431EA14208D011F813
:10538C00012B03F8012FF8E7014602448A4200D1B1
:10539C0010BD13F8014D02F8014DF7E738B505467D
:1053AC00002940D051F8043C0C1F002BB8BFE41866
:1053BC0000F010F91C4A136833B963601460284676
:1053CC00BDE8384000F00CB9A34208D92068211878
:1053DC008B4201BF19685B6809182160EDE71A461A
:1053EC005B680BB1A342FAD911685018A0420BD1DB
:1053FC0020680144501883421160E0D118685B6842
:10540C00014411605360DAE702D90C232B60D6E714
:10541C00206821188B4201BF19685B68091821604C
:10542C0063605460CBE738BD8404002070B50E4E29
:10543C000C463168054611B900F0BCF830602146C5
:10544C00284600F0B7F8431C0AD0C41C24F003040F
:10545C00A04207D0211A284600F0ACF8013001D147
:10546C004FF0FF34204670BD880400202DE9F04138
:10547C00CD1C25F0030508350C2D38BF0C25002D4F
:10548C00074601DBA94205D90C2300263B603046B8
:10549C00BDE8F0812E4E00F09DF833681C4634BBFD
:1054AC0029463846FFF7C2FF431C04464DD13468E9
:1054BC002646002E40D123683146384604EB0308BB
:1054CC0000F078F880453AD1216803356D1A25F043
:1054DC00030508350C2D38BF0C2538462946FFF737
:1054EC00A5FF01302BD023682B4423600EE02268EB
:1054FC00521B1ED40B2A16D96119A342256018BF62
:10550C005960636808BF316062514B60384604F1E2
:10551C000B0600F065F826F00706231DF21AB6D02C
:10552C009B1BA350B3E76268A3420CBF32605A6066
:10553C00ECE723466468B2E734467668B9E70C2397
:10554C0038463B6000F04CF8A1E72560DEE700BF71
:10555C00840400202DE9F041804614460E4621B902
:10556C001146BDE8F041FFF781BF2AB9FFF716FFDE
:10557C0025462846BDE8F08100F038F884420746FD
:10558C0002D8B4EB500F12D821464046FFF76EFFFD
:10559C0005460028EDD0BC422246314628BF3A468B
:1055AC00FFF7D4FE31464046FFF7F8FEE1E73546FB
:1055BC00DFE7000038B50023054D044608462B6094
:1055CC00FBF7A6FB431C02D12B6803B1236038BD4B
:1055DC008C040020014800F011B800BF900400209A
:1055EC00014800F00CB800BF9004002051F8043CB6
:1055FC00181F002BBCBF0B58C01870477047704762
:10560C00F8B500BFF8BC08BC9E467047F8B500BFA3
:08561C00F8BC08BC9E46704773
:1056240030210D0A0000000031210D0A00000000A5
:1056340032210D0A000000000D0A33210D0A00007A
:1056440071776572747975696F7061736466676880
:105654000000000000000000000000000000000046
:105664000000000000000000000000000000000036
:105674000000000000000000000000000000000026
:105684000000000000000000000000000000000016
:105694000000000000000000000000000000000006
:1056A40000000000000000000000000000000000F6
:1056B40000000000000000000000000000000000E6
:1056C40000000000000000000000000000000000D6
:1056D40000000000000000000000000000000000C6
:1056E40000000000000000000000000000000000B6
:1056F40000000000000000000000000000000000A6
:105704000000000000000000000000000000000095
:105714000000000000000000000000000000000085
:105724000000000000000000000000000000000075
:105734000000000000000000000000000000000065
:105744003132333435363738393000000000000048
:105754000000000000000000000000000000000045
:105764000000000000000000000000000000000035
:105774000000000000000000000000000000000025
:105784000000000000000000000000000000000015
:105794000000000000000000000000000000000005
:1057A40000000000000000000000000000000000F5
:1057B40000000000000000000000000000000000E5
:1057C40000000000000000000000000000000000D5
:1057D40000000000000000000000000000000000C5
:1057E40000000000000000000000000000000000B5
:1057F40000000000000000000000000000000000A5
:105804000000000000000000000000000000000094
:105814000000000000000000000000000000000084
:105824000000000000000000000000000000000074
:105834000000000000000000000000000000000064
:105844000D0A34210D0A000039210D0A0000000060
:1058540002030405060708090A0B0C0D0E0F1010AD
:1058640002030405060708090A0B0C0D0E0F10109D
:1058740049443A307825580A0000000077323571DF
:10588400787820436869703A20773235713531323F
:105894000A00000077323571787820436869703ADD
:1058A40020773235713235360A000000773235718F
:1058B400787820436869703A20773235713132380C
:1058C4000A00000077323571787820436869703AAD
:1058D400207732357136340A000000007732357192
:1058E400787820436869703A207732357133320A08
:1058F4000000000077323571787820436869703A87
:10590400207732357131360A000000007732357164
:10591400787820436869703A207732357138300AD4
:105924000000000077323571787820436869703A56
:10593400207732357134300A000000007732357137
:10594400787820436869703A207732357132300AAA
:105954000000000077323571787820436869703A26
:10596400207732357131300A00000000773235710A
:10597400787820556E6B6E6F776E2049440A00006C
:10598400506167652053697A653A2025642042791D
:105994007465730A000000005061676520436F75E9
:1059A4006E743A2025750A00536563746F72205330
:1059B400697A653A2025752042797465730A000076
:1059C400536563746F7220436F756E743A20257546
:1059D4000D0A0000426C6F636B2053697A653A20AC
:1059E40025752042797465730A000000426C6F6368
:1059F4006B20436F756E743A2025750A0000000011
:105A040043617061636974793A202575204B420AB9
:105A1400000000000D0A000049443A307825580D72
:105A24000A00000077323571787820436869703A4B
:105A340020773235713531320D0A000077323571F5
:105A4400787820436869703A207732357132353678
:105A54000D0A000077323571787820436869703A0E
:105A640020773235713132380D0A000077323571C2
:105A7400787820436869703A207732357136340D6E
:105A84000A00000077323571787820436869703AEB
:105A9400207732357133320D0A00000077323571C8
:105AA400787820436869703A207732357131360D41
:105AB4000A00000077323571787820436869703ABB
:105AC400207732357138300D0A0000007732357195
